:10000000C0270020550100005101000051010000EF
:1000100000000000000000000000000000000000E0
:10002000000000000000000000000000510100007E
:10003000000000000000000051010000510100001C
:100040005101000051010000510100005101000068
:10005000510100005101000051010000693700000A
:100060005101000051010000510100005101000048
:100070005101000051010000510100005101000038
:10008000510100005101000051010000B92700009A
:100090005101000051010000510100005101000018
:1000A0005101000051010000510100005101000008
:1000B00000000000510100000448054B10B58342C8
:1000C00003D0044B002B00D0984710BD144B000008
:1000D000144B00000000000006480749091A8B1065
:1000E000C90FC91810B5491003D0044B002B00D01C
:1000F000984710BD144B0000144B00000000000096
:1001000010B5074C2378002B09D1FFF7D5FF054B1D
:10011000002B02D0044800E000BF0123237010BD73
:100120006000002000000000144B0000054B10B5DB
:10013000002B03D00449054800E000BFFFF7CCFFC7
:1001400010BDC0460000000064000020144B0000F9
:10015000FEE7000010B5124B124A934207D0114B34
:100160000F4A01E002CA02C30F498B42FAD30F4B78
:1001700001E0002204C30E4A9342FAD30D4BFF2242
:1001800093430D4A93600D4B002B00D098470C4BC6
:1001900098470C4B002B00D098470B4B9847FEE735
:1001A000144B0000000000205800002060000020D8
:1001B000BC0700200000000000ED00E0000000008F
:1001C000DD460000000000004527000010B584B0A7
:1001D0008024E405210001200A4B984721000120DA
:1001E000094B984702AB09490A68029209791971CB
:1001F0000748802109020091039B0649064CA0474D
:1002000004B010BDE5140000D5140000084900003A
:10021000B800002000140042850D000010B502480F
:10022000024B984710BDC046B8000020310F0000B7
:1002300030B585B0064D074C03920293019100231F
:1002400000932A0001002000034CA04705B030BDF8
:10025000B8000020140200205132000030B585B0F3
:10026000074D084C03920293019101230093002350
:100270002A0001002000044CA04705B030BDC04654
:10028000B80000201402002051320000F0B583B005
:100290008024240521000020154EB04721000020B5
:1002A000144FB8478025AD0329000020124B984712
:1002B00029000020B84729000020B04700940023FF
:1002C0006A4613710D482200019B0D490D4CA04751
:1002D000041E07D1802189030020074B9847200086
:1002E00003B0F0BD0548084B98470400F2E7C0464C
:1002F000E5140000D5140000F5140000C40000202F
:1003000000140042051300004914000010B58021BC
:1003100089030020094B984709480A4B9847041E57
:1003200006D1802189030020074B9847200010BD8B
:100330000348064B98470400F3E7C046E514000065
:10034000C400002075130000F5140000A51400007F
:1003500010B586B0094A11000C3109481300343336
:1003600004930E2303931F330293002301930093FE
:100370000233044CA04706B010BDC046C4000020A4
:1003800014020020F5340000F0B5DE4657464E4614
:100390004546E0B589B09F4B994618000C309E4BFE
:1003A00098474B465B6C9A46022098409B4B984678
:1003B00098479B4E9B49B047E0218905B04783464B
:1003C0004B4634229B5E1F023FB29BB21B0A1F4367
:1003D00007973800C0475946B047934F78604B465F
:1003E00036229B5E1D022DB29BB21B0A1D432800C4
:1003F000C0475946B047B8604B4638229B5E1C0246
:1004000024B29BB21B0A1C432000C0475946B04788
:10041000F8604B469B6CFA209840C047E021890564
:10042000B04783464B463A229B5E180200B29BB20D
:100430001B0A1843C0475946B04738614B463C2217
:100440009B5E180200B29BB21B0A1843C047594674
:10045000B04778614B463E229B5E180200B29BB2C9
:100460001B0A1843C0475946B047B861E317E41860
:100470005C40A4B2EB17ED185D40ADB2079FFB17CF
:10048000FF185F40BFB22A1CBD4200D23A1C231C99
:1004900091B28C4200D2131C1BB25246032A02D0E6
:1004A000624A934244DC5246002A02D0604A934298
:1004B00059DD58483E23C25E13021BB292B2120AA3
:1004C0001343DA179B1853409BB23C22815E0A0209
:1004D00012B289B2090A0A43D11752184A4092B29D
:1004E0003A21405E010209B280B2000A0143C817F6
:1004F0000918414089B2101C8A4200D2081C1A1CFB
:1005000081B28B4200D2021C12B2424B9B6C032B75
:1005100002D046498A4241DC002B02D044498A423B
:100520005ADD09B0F0BCBB46B246A946A046F0BDB4
:1005300053460133374A5364DBB25B0006210B405C
:1005400046315354110050313A4813004C33049350
:100550000123039314240294123C01940093013369
:10056000354CA047A5E75346013B2A4A5364DBB20A
:100570005B0006210B4046315354110050312D4889
:1005800013004C3304930123039314240294123C6C
:10059000019400930133284CA0478AE701331D4A98
:1005A0009364DBB25B0006210B407231535411009F
:1005B0007C31204813007833049301230393029382
:1005C00002240194009301331B4CA0478021C903EE
:1005D00001201A4B9847A4E7013B0E4A9364DBB213
:1005E0005B0006210B407231535411007C311148DD
:1005F000130078330493012303930293022401949C
:10060000009301330C4CA0478021C90301200C4BFF
:10061000984786E7C400002031350000DD44000023
:10062000FD3E00000AE81C418000002033730000FA
:100630003333000014020020F5340000E5140000FC
:10064000F514000070B5C022920002210020184C61
:10065000A047C022120302210020A047C02212029C
:1006600002210120A047C022920202210120A047BE
:100670009625AD012B00002201210E480E4CA0470B
:100680002B00012203210D48A0472B00012203214A
:100690000B48A0472B00002201210A48A0478021D7
:1006A000C0204900C000084B9847084B984770BDD0
:1006B00005150000000800420D1C0000000C00425F
:1006C00000180042001C0042E136000065220000D4
:1006D000F0B5C64600B506212348244B98470028AC
:1006E00019D023492048234B9847002816D00022D0
:1006F00001211D48204B9847002812D01A481F4B53
:100700009847002810D080221204042101201C4B9D
:100710009847002523E01B4B9847E2E7194B984781
:10072000E5E7184B9847E9E7164B9847EBE70E4B80
:100730009846FC229205012118000F4FB847124B32
:100740001A6893009B181C01E41A20000F4EB04752
:10075000002201214046B8472000B0470135012D55
:10076000E5DD80BCB846F0BD003C004251150000FC
:1007700000903045B5160000411700002516000016
:1007800005150000212700006C4A0000492C0000DC
:1007900070B50A4B9847040009480A4B9847051E54
:1007A00000D02500084B9847041E00D02C000748B5
:1007B000074B9847002800D0200070BD0D030000B3
:1007C00070020020610B00001D0200008C0200205E
:1007D000F50F000070B584B0C02212040221002081
:1007E000344CA0478022520303210020A0478024DC
:1007F000640521000020304EB04780252D062900D9
:100800000120B047210000202C4CA04729000120E6
:10081000A0472B4B019300230093023300220021B9
:100820002848294CA047002837D0284B9847284B08
:100830009847002834D0274B9847002833D002AB84
:10084000802252050292002119712348039B1D4901
:10085000224CA047002829D0214B984702AB214CBD
:100860002268029221791971164D1F4807210191C2
:100870008021C9030091039B29001C4EB0478022B0
:1008800080211B48083400942B0092000901194C68
:10089000A047194B984704B070BD184B9847C4E760
:1008A000164B9847C7E7154B9847C8E7134B98472F
:1008B000D2E7C04605150000E5140000D51400007D
:1008C000808D5B000014004269190000510C00008B
:1008D000450600008D02000070020020DD0B0000C4
:1008E000CD010000104900008C0200206D0F0000B7
:1008F00014020020ED2E00009107000021270000C7
:1009000070B5AAB0294B9847002811D08023E02267
:1009100027495B00D20020A8264CA04720A8264BE0
:100920009847264B9847264B98470600002403E03B
:10093000244B9847EAE70134FF2C1DDC6B46FF226D
:100940009A7000236A46D37001330332210001A854
:100950001D4DA84701A81D4B98476B46DB78FF2B20
:10096000E9D001236A46023221000BA8184DA8479E
:100970000BA8164B9847DEE7114B9847801B154B89
:100980009847154B15499847154B98471F90154A9E
:100990008023002115A80C4CA04715A80B4B9847A5
:1009A000114B1868114B9847FAE7C046D50700006D
:1009B000D1060000E1270000C9280000150A000048
:1009C0002D1B0000212700003102000085320000AD
:1009D0005D02000075450000FD3E0000ABAAAA3C88
:1009E000FD370000680100206C4A0000492C00001F
:1009F00010B5044B9847044B9847044B1868044BB8
:100A00009847F6E751030000890300006C4A000094
:100A1000492C000070B5C023A0220549054C9B005D
:100A200012012000044DA8472000044B984770BDD8
:100A3000F1090000E8010020E1270000C9280000BA
:100A400070B504000E001500037D427D12021A43AA
:100A5000837D1B041343C17D09061943007E114B9E
:100A60009847237C627C12021A43A37C1B04134325
:100A7000E07C0006184331000B4B9847237D627DD4
:100A800012021A43A37D1B041343E17D0906194397
:100A9000207E064B9847680040194000044B984759
:100AA00070BDC046F5140000D1190000E514000027
:100AB000B51A0000F8B50400A02647E0237D627D4A
:100AC00012021A43A37D1B041343E17D0906194357
:100AD000207E204B9847237C627C12021A43A37C21
:100AE0001B041343E07C0006184331001A4FB8473B
:100AF000237C627C12021A43A37C1B041343E07C18
:100B0000000618430021B8470500237C627C1202CE
:100B10001A43A37C1B041343E07C00061843002106
:100B2000B8470700237D627D12021A43A37D1B0490
:100B30001343E17D09061943207E084B9847330093
:100B4000A03B2D023D43E5520236F6B2AE2EB5D99A
:100B5000F8BDC046F5140000D1190000E5140000EE
:100B600030B50400837BC57B2D021D43FF232A0083
:100B70009A431300002282731B0AC37300200023D0
:100B800014E042105200A25A120A18E05B009BB215
:100B90000132072A09DC19B20029F7DA5900C0230B
:100BA0009B014B401BB29BB2F2E701300F2809DCDE
:100BB000C207E6D542105200A15AFF220A40534014
:100BC0000022E6E71B0BA5732A0AE2730F202840D8
:100BD000C01A43425841C0B230BD000070B582B067
:100BE00005000C000092019308000E4B9847061E6A
:100BF00002D1300002B070BD2C74230A6B74230C38
:100C0000AB74240EEC742800143005226946064BA0
:100C10009847064A1E212800054B98472800054B97
:100C20009847E6E7E11700002D470000B80B0000E9
:100C3000410A0000B50A00000B2804D8034A3F23EC
:100C4000D054012070470020FCE7C0460048004116
:100C5000074B5A6920210A435A61DA690A43DA616B
:100C6000044A054B5A63054A9A63054A1A8070473D
:100C7000000400404003002000480041A002002082
:100C8000020F0000F0B505AC2688022B2DD80029F4
:100C900023D08024E400002A21D080252D012C437C
:100CA0001D02C027BF003D402C4301252C4304807A
:100CB0004680002915D0591C7143069CA446614406
:100CC0004160002A0FD001337343079A944663446E
:100CD0008360089BC3600120F0BD0024DBE7002592
:100CE000DDE70699ECE7079BF2E70020F4E7000058
:100CF00070B50C0015001E000E4B9847002812D04E
:100D0000032E11D8032C11D8012C11D0A405C02317
:100D10001B041C402D02FC239B011D402C4376012B
:100D20003443054A546470BD0020FCE70020FAE714
:100D30000020F8E7390C00000048004110B5074BCF
:100D40009847002809D0064A4E230221D1543E314B
:100D5000535C02242343DBB2535410BD390C000012
:100D60000048004110B5054B9847002805D00449BC
:100D700040228B5C0224A3438B5410BD390C00002D
:100D80000048004130B583B004000092019306ABE7
:100D90001D8801700B0A43700B0C8370090EC17023
:100DA000043005226946104B984765722D0AA572DA
:100DB0002379627912021A43A3791B041343E17960
:100DC00009061943207A094B984723796279120260
:100DD0001A43A3791B041343E17909061943207AC6
:100DE000034B984703B030BD2D470000D5140000D9
:100DF000E514000010B504000379427912021A4389
:100E000083791B041343C17909061943007A0E4BF9
:100E100098472378627812021A43A3781B0413437D
:100E2000E078000618430621084B98472379627939
:100E300012021A43A3791B041343E17909061943EB
:100E4000207A034B984710BDF5140000D11900001B
:100E5000E514000010B504000379427912021A4328
:100E600083791B041343C17909061943007A0E4B99
:100E700098472378627812021A43A3781B0413431D
:100E8000E078000618430421084B984723796279DB
:100E900012021A43A3791B041343E179090619438B
:100EA000207A034B984710BDF5140000D1190000BB
:100EB000E514000070B504000379427912021A4368
:100EC00083791B041343C17909061943007A154B32
:100ED00098472378627812021A43A3781B041343BD
:100EE000E0780006184305210F4DA8472378627863
:100EF00012021A43A3781B041343E0780006184338
:100F00000021A84705002379627912021A43A379C8
:100F10001B041343E17909061943207A034B9847D0
:100F2000280070BDF5140000D1190000E514000080
:100F300010B504000A4B984720000A4B98478007D9
:100F400001D4002010BD2000074B98472000054B1E
:100F50009847800701D40120F4E70020F2E7C0465B
:100F6000F50D0000B50E0000550E000070B582B002
:100F700004000092019306AB20CB1E7801700B0A8F
:100F800043700B0C8370090EC1700830052269464E
:100F9000154B984725712B0A63712B0CA3712D0EED
:100FA000E5711F223240637B1F218B431343637320
:100FB000237A627A12021A43A37A1B041343E17A5A
:100FC00009061943207B094B9847237A627A12025B
:100FD0001A43A37A1B041343E17A09061943207BC1
:100FE000034B984702B070BD2D470000D514000098
:100FF000E514000030B583B00400037A427A12028F
:101000001A43837A1B041343C17A09061943007BF0
:10101000244B98472378627812021A43A3781B0462
:101020001343E078000618439F211F4B9847002583
:101030000FE02378627812021A43A3781B0413434B
:10104000E078000618430021174B984701AB58552C
:101050000135022DEDDD237A627A12021A43A37A5A
:101060001B041343E17A09061943207B0F4B984771
:1010700001AB1B781F2B0ED101AB5A78637BDB06CB
:10108000DB0E80210B439A4208D101AB9B78012BE8
:1010900006D0002000E0002003B030BD0020FBE7B8
:1010A0000120F9E7F5140000D1190000E514000053
:1010B00070B504000E001500027943791B0213433A
:1010C000827912041A43C17909061143007A154B3B
:1010D00098477F2131402378627812021A43A3781F
:1010E0001B041343E078000618430F4EB0472378E3
:1010F000627812021A43A3781B041343E0780006B7
:1011000018432900B0472379627912021A43A37960
:101110001B041343E17909061943207A034B9847CE
:1011200070BDC046F5140000D1190000E5140000A0
:1011300070B504000D000379427912021A438379D5
:101140001B041343C17909061943007A164B9847CB
:10115000802149422943C9B22378627812021A4396
:10116000A3781B041343E078000618430F4DA847EB
:101170002378627812021A43A3781B041343E078A1
:10118000000618430021A84705002379627912025E
:101190001A43A3791B041343E17909061943207A02
:1011A000034B9847280070BDF5140000D1190000CA
:1011B000E5140000F0B5C64600B504000D001700A8
:1011C0009846027943791B021343827912041A4329
:1011D000C17909061143007A194B98477F212940AC
:1011E0002378627812021A43A3781B041343E07831
:1011F00000061843134B984700260EE04346995DBE
:10120000227863781B021343A5782D041D43E078F0
:10121000000628430B4B98470136BE42EEDB23798C
:10122000627912021A43A3791B041343E179090678
:101230001943207A044B984780BCB846F0BDC0469D
:10124000F5140000D1190000E5140000F0B5C64601
:1012500000B504000D001700984603794279120288
:101260001A4383791B041343C17909061943007A91
:101270001B4B9847802149422943C9B223786278A1
:1012800012021A43A3781B041343E07800061843A4
:10129000144B9847002510E043465E192378627886
:1012A00012021A43A3781B041343E0780006184384
:1012B00000210C4B984730700135BD42ECDB23799F
:1012C000627912021A43A3791B041343E1790906D8
:1012D0001943207A044B984780BCB846F0BDC046FD
:1012E000F5140000D1190000E514000010B5032921
:1012F00000D910BD0901CAB27F21014B9847F8E718
:10130000B1100000F0B583B005000C00009201930D
:101310000800134B9847061E02D1300003B0F0BD01
:101320002C70230A6B70230CAB70240EEC70281DFC
:10133000052269460B4B98478022062128000A4C5B
:10134000A0470A480A4FB847102203212800A047A7
:10135000012206212800A047F0204000B847DCE722
:10136000E11700002D470000B1100000D00101007E
:10137000B51A000010B504000021064B9847002163
:101380002000054B9847EA2801D0002010BDE9381D
:10139000FCE7C046ED12000031110000F8B5040072
:1013A0000F00160003210B4B98470C22032120004D
:1013B000094DA8473A0004212000A8473200062121
:1013C0002000A847812205212000A8470348044B9C
:1013D0009847F8BDED120000B110000060EA00006F
:1013E000B51A0000F0B5C64600B582B004000F0083
:1013F0001500984603210F4EB04701AB8C221A709E
:101400005F700D3AFF3A2A439A70032203212000AD
:10141000094FB84709480A4B984700212000B047B8
:1014200043462A003B212000064CA04702B080BC66
:10143000B846F0BDED120000B511000070170000B5
:10144000B51A00004D12000070B504000021104EC6
:10145000B0472022032120000E4DA8470321200081
:10146000B047072201212000A847012202212000C5
:10147000A8470948094B9847012232212000084D0E
:10148000A847082231212000A847012070BDC0468E
:10149000ED120000B110000070170000B51A000036
:1014A0009D13000030B583B001AC2300022200215F
:1014B000074DA8472378482B04D16378092B04D023
:1014C000002000E0002003B030BD0120FBE7C04653
:1014D000E5130000C001024B9C46604481607047E8
:1014E00000440041C001024B9C466044816170474A
:1014F00000440041C001024B9C466044416170477A
:101500000044004110B50B06F02109050B400E49BF
:10151000194313041C0C002B05D02143C3010B4CB1
:10152000A4466344996280235B029A420BD3090C60
:10153000090480231B060B43120C1A43C001034B02
:101540009C466044826210BD00000150004400418E
:1015500010B52A4CA0423CD00FD9294CA04242D011
:10156000284CA0421BD1284A146A80231B02234323
:101570001362264B264A5A801CE0264CA04210D00B
:10158000254CA04209D1204A146A80235B012343E1
:1015900013621E4B214A5A800CE0002018E0002004
:1015A00016E0194A146A80231B0123431362174B68
:1015B0001B4A5A80154B5B785BB2002BFADB0B029F
:1015C000E022D2001340442213439BB20380012047
:1015D00010BD0D4A146A80239B01234313620B4BF9
:1015E0000E4A5A80E6E7084A146A8023DB01234347
:1015F0001362064B064A5A80DCE7C04600340042BC
:1016000000380042003C004200040040000C004052
:101610001D400000002C0042003000421C40000031
:101620001B4000000F4A904210D007D80E4A90424B
:101630000CD00E4A904209D0002070470C4A9042CC
:1016400004D00C4A904201D00020F6E70388022221
:1016500013439BB20380C37B5BB2002BFBDB0120F7
:10166000EBE7C04600340042002C0042003000424C
:1016700000380042003C004207231840072813D8D6
:1016800080000B4B1B589F46012070470420FCE74D
:101690000820FAE71020F8E74020F6E78020400015
:1016A000F3E78020C000F0E70020EEE70220ECE73F
:1016B0008849000070B504000D1C164A904210D0F5
:1016C00007D8154A90420CD0144A904209D0002005
:1016D00070BD134A904204D0124A904201D00020BB
:1016E000F6E723881B0A072018400F4B98470F4B3B
:1016F00098470F4B291C9847011C0E4B0E489847E2
:101700000E4B9847FF2803D8C0B220750120DFE7B1
:101710000020DDE700340042002C0042003000428F
:1017200000380042003C004279160000DD44000011
:10173000FD3E0000313B0000001B374CFD37000030
:10174000F8B504000E00151C1B4A904210D007D8B3
:101750001A4A90420CD01A4A904209D00020F8BD93
:10176000184A904204D0184A904201D00020F6E76F
:10177000164B0021281C984700281BD1144BFE2132
:101780008905281C9847002801D0FE25AD05277D36
:10179000FFB2104B380098470F4B291C98470F4B4E
:1017A00098473B00874200D30300DBB2A41923769D
:1017B0000120D4E70025E1E700340042002C00427C
:1017C0000030004200380042003C0042AD370000CB
:1017D000D5370000DD440000FD3E0000FD3700006D
:1017E000114B984217D00CD8104B984215D0104B83
:1017F000984214D00F4B984201D00020704701202E
:10180000FCE70D4B98420CD00C4B984201D00020C5
:10181000F4E70120F2E70120F0E70120EEE70120E4
:10182000ECE70120EAE7C04600140042000C004249
:10183000001000420008004200180042001C004254
:10184000294B98423DD022D8284B984230D0284B83
:10185000984208D1274A136A10210B431362264B82
:10186000264A5A800AE0264B98420ED1214A136A32
:1018700004210B431362204B224A5A801E4B5B7893
:101880005BB2002BFADB012070470020FCE71E4B07
:1018900098421FD01D4B984208D1164A136A8021E6
:1018A0000B431362144B1A4A5A80E7E70020EBE718
:1018B000104A136A08210B4313620F4B154A5A80D2
:1018C000DCE70C4A136A20210B4313620A4B124ACD
:1018D0005A80D3E7074A136A40210B431362064B31
:1018E0000E4A5A80CAE7C04600140042000C00426B
:1018F0000010004200040040000C004016400000B0
:10190000000800421440000000180042001C004281
:10191000194000001540000017400000184000006A
:1019200070B506000D000A4B9847041E0ED06800E3
:10193000084B9847011C084B08489847084BFE2164
:1019400089059847074B9847C0B23073200070BD97
:10195000E117000075450000313B0000001B374CCB
:1019600079410000FD370000F8B5CE46474680B506
:1019700004000D0017001E0008AB1B789946124B9F
:1019800098478046002804D14046C0BCB946B046BE
:10199000F8BD6D073F073D43360535434B461B04F5
:1019A0001D430C231D43256080239B02636009991E
:1019B0002000064B98472368022213432360E36903
:1019C0009B07FCD4E0E7C046411800002119000045
:1019D000037EDB07FCD58162037E9B07FCD5806A12
:1019E000C0B2704700E0836A037E5B07FBD4704798
:1019F000274A536802210B435360264A264B9382A1
:101A0000938A0B439BB29382224BDB689B07FBD5E7
:101A1000224B0222FF329A60214A5A601F4B5B78A8
:101A20005BB2002BFADB1D4B8222D2015A80194B8C
:101A3000DB68DB06FBD5174B02229A84154BDB686B
:101A4000DB06FBD5134B174ADA62124BDB68DB0669
:101A5000FBD5154B5B680F4B9A6A9A620D4BDB689E
:101A6000DB06FBD50B4A938C10490B439384094B3F
:101A7000DB681B06FBD5074BDB685B06F7D5074B1E
:101A80000B4A5A60054B5B785BB2002BFADB704760
:101A900000400041000800400C040000000C004021
:101AA00001050300B905FF7D2060800006080000E5
:101AB000000703000138C046C046C046C046C046C5
:101AC000F8D17047144A116A80235B010B431362FB
:101AD000124B134A5A80114B5B785BB2002BFADB36
:101AE000104B08221A800F4BDB7B5BB2002BFADB1A
:101AF0000C4A138802210B439BB21380094BDB7BFA
:101B00005BB2002BFADB074B074A5A80054BDB7BA5
:101B10005BB2002BFADB704700040040000C004071
:101B20001C4000000030004210400000014B1869CA
:101B30007047C04600300042044B10225A73034BDA
:101B4000DB7B5BB2002BFADB7047C0460030004203
:101B5000024B802212031A607047C04600E100E089
:101B6000044A802380210903D150BFF34F8FBFF374
:101B70006F8F704700E100E0044B10229A73044A13
:101B8000C0235B0080210903D15070470030004220
:101B900000E100E0024A9369034393617047C04645
:101BA0000030004270B506000D00104B9847041E2F
:101BB00018D00F4B9D4217D80E4B280098470E4B5C
:101BC0000E4998470E4D8321C905A847011C0D4BAE
:101BD000FE20800598478F21C905A8470A4B9847E2
:101BE00080B2B081200070BD0024FBE7E117000047
:101BF000C0C62D0075450000313B0000001B374C6E
:101C0000FD3E000079410000FD370000F8B50400FA
:101C10000E0017001D00114B984700281CD03605F8
:101C2000C0239B031E403F04C022920217403E4344
:101C30000B4B334323606260E2695207FCD42900F6
:101C40002000084B9847002806D02368022213433F
:101C50002360E3699B07FCD4F8BDC046411800002F
:101C600004000040A51B000070B5104B1C88402CE0
:101C700000D9402426000D4B1D1D596C2200280060
:101C80000B4B98470023220029008020094DA847CC
:101C9000002C07D0054B1A88121B1A805A6C921917
:101CA0005A6470BD044B9847F4E7C046E003002037
:101CB0002D470000792100008122000010B582B07C
:101CC000404B48229B5C18321A4277D13E4B5B78DE
:101CD0000B2B70D89B003D4AD3589F46394B0022AE
:101CE0001A715A7102203A4B98473A4B984767E06D
:101CF0000020374B9847374B984761E00020344B22
:101D00009847344B98475BE02F4B5988080AC9B273
:101D10000023019301AA304B9847002819D001995C
:101D2000002916D0284AD288824200D302002B4BC9
:101D3000994205D0234B1A805964294B98473FE0BC
:101D4000204900230B80043101338020254CA0471B
:101D500036E0254B984733E01A4B50229A5C1A71B3
:101D600001201B4B98471B4B984729E0164B98784E
:101D70001E4B984700280BD00020154B9847114B5D
:101D80001A004832917850229954124B984717E024
:101D9000154B984714E00C4B59889888144B98477A
:101DA000002805D000200A4B98470A4B984707E0C7
:101DB0000D4B984704E00C4B984701E00D4B9847BA
:101DC00002B010BDE003002028040020A849000054
:101DD000992200008122000019260000E40300205F
:101DE000691C000079210000B1220000DD250000FF
:101DF000F5250000CD24000010B5054B48229B5C62
:101E000018321A4200D110BD024B9847FBE7C0467A
:101E1000E0030020DB25000010B50D4B48229B5C41
:101E200018321A4210D10B4B5B78052B02D0062BCF
:101E300007D010BD074B9B787F201840064B984772
:101E4000F7E7064B9847F4E7054B9847F1E7C0469C
:101E5000E003002028040020C51F0000691C0000CA
:101E6000D925000070B506000B4B984780B21F289B
:101E700000D91F20431C5B00084A137103235371D0
:101E8000002205E0B15C054B54001B19D9800132DA
:101E90009042F7DC024870BDBD470000E00300201F
:101EA000E4030020124A134B1A605A681248024099
:101EB0005A605968C0229205114359600F4919614F
:101EC00059690140596159690A435A615A69520076
:101ED00052085A615969802212060A435A61084B16
:101EE0000A22FF3210219954093A0131995470475E
:101EF00034040020C0040020FFFFFF8FE403002013
:101F00000050004170B5264AD36920210B43D361AC
:101F1000244B254A5A80254B01221A70234B9B786B
:101F2000DB07FBD4214B02221A70204B9B789B07C6
:101F3000FBD41F4B5B685B03F822920213401F2BFC
:101F400028D01B4A51688904F822D20311401F2966
:101F500022D0174A5268D205E02080040240072AA6
:101F60001CD09B01F820C00003401F2001400B4300
:101F7000120313430D4D2B850E4B1A7812010E4C94
:101F8000002120000D4B98476C6208232B830C4BDB
:101F9000984770BD1A3BD4E70239DAE7043AE0E724
:101FA00000040040000C00400640000000500041CA
:101FB000206080002A4A0000C0040020354600004E
:101FC000A51E000080235B421843C0B2014B9872EB
:101FD0007047C0460050004130B5030040B20028B1
:101FE00024DB3F201840494B44011B195C68484DD5
:101FF0002C405C605B68082A5FD9102A00D872E028
:10200000202A00D872E0402A00D872E0802A00D846
:1020100072E080246400A24200D870E00134FF34F2
:10202000A24200D96EE0C022D20547E03F20034023
:1020300036485C0100194469354D2C4044614069C3
:10204000082A12D9102A26D9202A27D9402A28D985
:10205000802A29D980246400A24228D90134FF347F
:10206000A24227D8C022D20500E000221043274A0E
:102070005C0112195061274C08335B011A5D013174
:10208000C9B20901702001400A431A55A4466344AD
:10209000A2221A7126E080225205E7E780229205EB
:1020A000E4E7C0229205E1E78022D205DEE7A02224
:1020B000D205DBE7E022D205D8E700221A43134B12
:1020C00044011B195A60134A08304001835C0131F6
:1020D000072421400B4383549446604440234371BA
:1020E0002F3B037130BD80225205E7E78022920525
:1020F000E4E7C0229205E1E78022D205DEE7A022D4
:10210000D205DBE7E022D205D8E7C046C0040020B4
:10211000FFFFFF8F00500041F0B5124D44012B1915
:102120005E68114F3E405E605E6892030F4F3A401A
:1021300016435E605A68920B92035A605A685A605E
:102140006151083040010A4B9C4660440523C3712D
:10215000084B9C466444012323703F3303710020E5
:10216000F0BDC046C0040020FF3F00F000C0FF0FDC
:10217000005000410951004170B53F242040154CEA
:102180004601A41965696D006D0865616569DB0725
:102190001D4365616369104D2B4063616369636131
:1021A00063699B0B9B03636163699204920C134305
:1021B0006361216108304001084B9C4660440A235A
:1021C000C371074B9C466644022333707E334371D0
:1021D000002070BDC0040020FF3F00F0005000410F
:1021E0000951004143B2002B0ADB3F23034008336F
:1021F0005B01094A94466344D8790123184070472B
:102200003F23034008335B01034A94466344DB7970
:102210005B0801201840F2E70050004143B2002B58
:1022200009DB3F23034008335B01084A94466344BB
:102230000122DA7170473F23034008335B01034AF0
:10224000944663440222DA71F4E7C046005000412C
:10225000034B40011B1858688004800C7047C0462F
:10226000C0040020044B80221A60044A1389012113
:102270008B4313817047C04600E100E000500041ED
:1022800010B5034940220020024B984710BDC046BC
:10229000340400201921000010B502000249012376
:1022A0008020024CA04710BDE403002079210000EB
:1022B000024A0623FF333021D154704700500041B9
:1022C00070B5254B1C8CA4B29B8B1B0710D4E30765
:1022D0000CD521490822FF328B5CDDB213208854D3
:1022E000DB060DD4EB0713D4AD0714D4012316E09D
:1022F000194B08229A83194B9847194B984726E0A7
:1023000018481949FF3A194B9847194B9847E9E77C
:10231000184B9847E8E7184B9847E7E70133174A07
:1023200012789A4211DD01229A401442F6D01A0026
:102330000832520108498C466244D179C9B25A0127
:102340000F48844662441170E8E70E4B98470E4BE5
:1023500080221A6070BDC04600500041A51E0000DA
:10236000C924000028040020340400202D47000068
:10237000BD1C0000F91D0000191E00002A4A0000C3
:10238000085100419925000000E100E010B588B037
:1023900000201CE082001218D417072319002140E6
:1023A0008918C910640F121913401B1B0C4A8A5C50
:1023B0001A410C4C095D0824E31A99400B001343A1
:1023C0001F221340084AD25C01AB1A54013019286D
:1023D000E0DD01A800238376044B984708B010BDC8
:1023E0000CA080000DA08000D8490000651E0000F0
:1023F00010B5082203218120094CA0472022022188
:102400000220A047202202218220A047054C202242
:1024100021000220044B984720230022E25410BDE3
:10242000D91F0000740400201921000010B50220FB
:10243000024B9847024B586210BDC0465122000023
:1024400074040020024B2022002199547047C0469A
:102450007404002070B50C00202900DD2024094DF3
:102460002E002836220001003000074B9847002339
:10247000220031008220054EB04720230122EA5479
:10248000200070BD740400202D4700007921000059
:1024900070B50C00094B5B6A994201D9074B5C6A25
:1024A000064D22002900064B9847202229000220D1
:1024B000044B984700236B62200070BD7404002019
:1024C0002D470000192100007047000010B52A4B6D
:1024D0001A7860231340202B00D010BD264B1979A9
:1024E0001F231340012B44D10029F6D1224B5B78E6
:1024F000222B31D00CD8202B26D0212B36D10023F3
:10250000062B23D81D4AD15C1D4AD1540133F7E76D
:10251000232B2BD100201B4B98471B4B9847DCE704
:10252000164B1A49895C99540132134B9979DB791E
:102530001B020B43934201DD062AF1D90020114B07
:102540009847114B9847C8E70022EEE707200D4B4C
:1025500098470D4B9847C0E7074B9A780C4B1A7079
:102560000020084B9847084B9847B6E7094B984717
:10257000B3E7084B9847B0E728040020000000208C
:10258000E40300209922000081220000340400208E
:10259000BC040020B122000010B502200A4B98476D
:1025A000002805D18220084B9847002806D110BD8D
:1025B0000220064B9847064B9847F3E78220034BCF
:1025C0009847044B9847F2E7E52100001D220000E0
:1025D0002D240000452400007047704710B50128E5
:1025E00001D9002010BD024B98470120FAE7C046F0
:1025F000F1230000002803D0012805D000207047F7
:10260000002905D00020FAE7002903D00020F6E7D2
:102610000120F4E70120F2E710B51400022828D0C9
:10262000032808D0012803D000200023236010BD18
:102630001130114BFAE702290FD008D8002915D024
:1026400001290FD10D480E4B984703000FE00329D5
:1026500008D10C4B9847030009E00B48084B9847FA
:10266000030004E0002323600020E0E7074B187814
:10267000DCE74620064BD9E7184A0000FC49000079
:10268000651E00008D2300000C4A0000144A000063
:102690000800002010B5074B9847074B984780214A
:1026A000C9030120054B9847054B9847054B9847B0
:1026B000012010BDF1190000C51A0000D51400005A
:1026C000B5280000391B000070B5040011E0642536
:1026D0008026F603310001200C4B98470C486843D4
:1026E0000C4DA847310001200B4B98470B48A847D9
:1026F00001342378002B07D02E2BE8D02D2B01D0CE
:102700000025E5E7C825E3E770BDC046E5140000F5
:1027100070170000B51A0000F5140000C02709006A
:1027200010B572B60348044B98470448044B9847C9
:10273000F8E7C0462C4A0000C926000080EE3600AB
:10274000B51A000070B5134B9847134C201D20603C
:10275000C022920011491300114DA8472068114B67
:10276000984701E00F4B98470F4B1B68002B03D095
:102770000E4B98470028F5D10B4B1B68002B06D158
:102780008021C90301200A4B9847002070BD094BE6
:102790009847C0469526000040050020010900002A
:1027A000E1270000C9280000780500207D290000ED
:1027B000E51400002127000010B5054B9847054B94
:1027C0001C68054B984760610120044B984710BD79
:1027D000791B00006C0500202D1B0000ED2A000075
:1027E00010B504000748821A6260A3604B1E236084
:1027F000E2602161044B984760610023A3612422B9
:10280000A35410BDC02700202D1B0000F0B55F466B
:1028100056464D464446F0B483B0019072B6242328
:10282000C35C002B24D11C4B019A1A6003239361D3
:10283000D36883F30988022383F31488BFF36F8F6F
:1028400062B6019213680133984772B6002383F38E
:102850001488BFF36F8F2433019AD35C002B18D1F7
:1028600062B603B0F0BCBB46B246A946A046F0BD76
:102870000A4B98470A4B1A6853019B1A9B009B18F6
:10288000DB00C018074B9847074B9847074B984702
:10289000C9E7074B9847E3E76C0500202D1B0000B4
:1028A000684A0000951B0000791B0000511B0000C6
:1028B000611B0000034B00225A609A601A60DA60C4
:1028C0007047C0466C050020F8B54F464646C0B478
:1028D000814672B68369032B49D0264BDB680F2BE8
:1028E00004DD0020C0BCB946B046F8BD224B984775
:1028F00080464B469B69002B07D04B465F693F1AC9
:102900001C4B5B689C4600250CE00027F8E7103163
:102910000EE00022BA4216DD164A9E009319186195
:1029200001350B00134AD668AE420CDD591EEED4B9
:10293000104A8800121810698269002AE9D0426999
:102940004446121BE6E70B4A9B00D318494619611F
:10295000731CD360664601365660F117090F76186E
:102960000F2333405B1A536062B60120BAE70020A0
:10297000B8E7C0466C0500202D1B0000F0B583B001
:1029800072B6574B9E68002515E023681B783DE022
:1029900023681B883AE06368BB4241D06B4607332B
:1029A0001B78002B63D10136F3171B0FF6180F228B
:1029B0001640F61A01354A4BDB68AB4259DD484BED
:1029C000B2009A1812691A609369022B51D1D46926
:1029D0006B460022DA71E368002B01D0E368984768
:1029E0003F4B1A689369012B43D0A368002B0FD08B
:1029F000A168FF230B40A1688B42C6D0A3681B04CB
:102A00001B0CA1688B42C3D023681B68A7681F40BA
:102A1000237CDBB2062B61D89B003249CB589F4602
:102A20006B460121D971B9E76368BB42B6D06B46EA
:102A30000121D971B2E76368BB42AFD26B46012175
:102A4000D971ABE76368BB42A8D86B460121D97145
:102A5000A4E76368BB42A1D96B460121D9719DE708
:102A60006368BB429AD36B460121D97196E7012373
:102A700093611B4BDC68280015E019498E688619A4
:102A8000731EDF173F0FDB190F221340DB1BF717F5
:102A90003F0FF6193240D21B9B00CB181B699200E6
:102AA00089180B6101380028E7DC0D49631ECB60F3
:102AB0008B6801338B60D817000F1B180F2213404F
:102AC0001B1A8B6062B6AC4203D1054B186803B089
:102AD000F0BD034B1868044B9847F6E70020F6E773
:102AE0006C050020384A00000D280000F0B55F4654
:102AF00056464D464446F0B483B00400EFF31483C9
:102B0000002B1CD072B60F4B01931B689C610822EE
:102B100052426A44DA605A68043A95467A46043268
:102B20001A6000BD02B0019B1B6803229A6162B665
:102B300003B0F0BCBB46B246A946A046F0BD024B6E
:102B40009847DFE76C05002021270000F0B54F46CD
:102B50004646C0B48BB081460F0090461D000F4E14
:102B600034680F4B9847606105AC4B460593069758
:102B7000434607930023089325746B461A0023CC21
:102B800023C203CC03C23268D3610220054B9847AD
:102B90000BB0C0BCB946B046F0BDC0466C050020C5
:102BA0002D1B0000ED2A0000F0B54F464646C0B48C
:102BB0008BB081460F0090461D000F4E34680F4BBE
:102BC0009847606105AC4B460593069743460793CB
:102BD000129B089325746B461A0023CC23C203CCA6
:102BE00003C23268D3610220054B98470BB0C0BCCA
:102BF000B946B046F0BDC0466C0500202D1B000054
:102C0000ED2A000000B583B00C4B984701900C4BA7
:102C10001A68536901995B1A0A490968994207DCE5
:102C20000849086807490860002B03DD03B000BDB0
:102C30001800F7E701239361F8E7C0462D1B000059
:102C40006C0500205000002070B586B00400094BD0
:102C50009847094B1D680019686101AA074B1100CC
:102C600051CB51C111CB11C1EA610220044B9847ED
:102C700006B070BD2D1B00006C050020544A0000FA
:102C8000ED2A0000F8B5164B1B681E6AB46A0025D1
:102C90000BE0134B1B6801229A610134E3175B0FB1
:102CA000E41807221440E41A0135336BAB4215DDFA
:102CB000A31C9B009B591A7D002AEED01A7C597CDC
:102CC000090211439A7C12040A43DF7C3F06174332
:102CD000044B98473F1A002FDFDCDAE7F8BDC04607
:102CE0006C0500202D1B0000F0B50C784D782D02EE
:102CF00025438C7824042C43CF783F0627430126B4
:102D000000E00136016BB14217DD0132D117490FE6
:102D1000521807242240521A911C89000D582C7811
:102D2000697809022143AC7824040C43E978090648
:102D30002143B942E5D16B75E3E7F0BDF0B5CE466E
:102D4000474680B583B0624B1B681F6A5DE0380060
:102D5000303001220233524200215E4CA04757E03E
:102D60002B7D002B58D10134E3175B0FE4180722A9
:102D70001440E41A01239C46E1443B6B4B4509DDBA
:102D8000A31C9B00DD591523EB56002BE8D12B7DAE
:102D9000002BE5D1396B49455ED01523EB56022B4C
:102DA0002FD02A7B6B7B1B021343AA7B12041A438E
:102DB000EB7B1B06134359D02B7B6A7B12021A4311
:102DC000AB7B1B041343EC7B24061C432B7A6A7AEF
:102DD00012021A43AB7A1B041343EA7A12061A430F
:102DE00079682B79687900021843AB791B04034397
:102DF000E879000618432B00A047002801D00223E1
:102E00006B751523EB56022B33D03B6B002B9ED0FA
:102E1000BC6A00239946B0E72A7C6B7C1B021343F3
:102E2000AA7C12041A43EB7C1B06134398462A4BD8
:102E300098474346181A002806DD0123220029007E
:102E40003800264EB0478EE700232B75220029005C
:102E50003800224CA0479DE7380030300122204B3B
:102E60000093012352421F4CA047CEE71E4B9847C8
:102E7000A2E72B7D002BC8D103336B7517E0B96A2D
:102E800049444B1ED817400F1B18072213401B1A2A
:102E9000C817400F09180A40121A02339B00D9596B
:102EA00002329300D95101235B429C46E1444B46D8
:102EB000002BE4DC3B6B013B3B63BB6A0133BB6231
:102EC000D917490F5B18072213405B1ABB629CE7B6
:102ED0006C0500204D2B00002D1B0000E92C00008C
:102EE000852C0000A92B00002127000070B50400EC
:102EF0001D000A4813000A0001002000084EB047D8
:102F0000A562049BE362002323656365A365230038
:102F1000283323622000034B984770BD3D2D0000ED
:102F2000E1270000C9280000F8B504000D0006984C
:102F3000079900262A70170A6F70170CAF70120ECF
:102F4000EA702B711A0A6A711A0CAA711B0EEB71C6
:102F50002872030A6B72030CAB72000EE8722973BD
:102F60000B0A6B730B0CAB73090EE9732E756E7540
:102F700007E02000583001220123524208210B4E65
:102F8000B047A36D082BF4D0626D11000C3189009D
:102F90000D510133A36501326265D117490F5318F2
:102FA000072213405B1A6365F8BDC0464D2B000035
:102FB000F0B5DE4657464E464546E0B589B00400BA
:102FC0000E00059307AB03208246187092B21521BC
:102FD00002A884466144100A08704A702278617819
:102FE00009021143A27812040A43E5782D0615431D
:102FF0000496307828218946A9440001244E80197E
:1030000024498B4603914946029101935146009110
:10301000002300220239204FB8476B469B8A98460E
:1030200000230393494602911C4B019341460091B2
:103030000023002200215846B847049A5078000126
:10304000801917498B460391164B0293494601910B
:1030500051460091002300220021B847002303932A
:10306000129B02934B460193434600930023012297
:1030700000215846B847211D049A28000A4B98475A
:1030800009B0F0BCBB46B246A946A046F0BDC0465A
:1030900040030020D0050020850C00008549000079
:1030A000C00500201002002045350000F0B5DE46C6
:1030B00057464E464546E0B589B004000E000593DC
:1030C00007AB0221197092B2133102A88446614401
:1030D000100A08704A702278617809021143A278B8
:1030E00012040A43E5782D061543307828229046CD
:1030F000A8440001254A91464844254A9346039234
:1031000042460292019303220092002300220121F1
:10311000204FB8476B469B8A9A460023039341464B
:1031200002911299019151460091002201215846C5
:10313000B8477078000148441749894603911749F8
:103140008B46029141460191032200920023002206
:103150000021B847002303935B4602934346019343
:10316000534600930023002200214846B847200020
:103170000B4B9847211D320028000A4B984709B095
:10318000F0BCBB46B246A946A046F0BD40030020B5
:10319000D0050020850C0000C00500201002002092
:1031A000F50D000045350000F0B583B014001D009A
:1031B0002423D35C002B04D0012B0AD0012003B0C0
:1031C000F0BDD3699269246A00941A4CA04701208B
:1031D000F5E79269E66993199C463F2317009F43E0
:1031E0003B0040339C4500D39E1A236A0093330072
:1031F000114FB847114B9847114B9847114B124943
:103200009847124B98472874030A6B74030CAB74ED
:10321000000EE87401232B75E3699B1BE36101D168
:103220000120CCE7A3699B19A361236A9B19236240
:103230000020C4E7B12F0000AD3000002D1B0000BE
:10324000754500002D38000000606A48FD37000019
:1032500030B583B014001A0006AB1D782423CD547A
:10326000079B8B61089BCB61099B0B62034B01930E
:1032700000912300024CA04703B030BDA9310000EB
:10328000292F000010B515300023FF220321014C27
:10329000A04710BD4D2B0000F0B5DE4657464E4608
:1032A0004546E0B587B004000E00049317236B4435
:1032B0001A70D1B2802252420A431A7002784178C1
:1032C00009021143827812040A43C5782D0615437A
:1032D000307828229146A9440001244A924650445D
:1032E000234A934603924A46029201930122009296
:1032F0000023002200211F4FB8476B461B8A9846C7
:1033000000230393494602911B4B019341460091D0
:103310000023002200215846B8477078000150442D
:1033200016498B460391164B02934946019101229F
:103330000092002300220021B84700230393109B32
:1033400002934B4601934346009300230122002140
:103350005846B847211D320028000A4B984707B04D
:10336000F0BCBB46B246A946A046F0BD40030020D3
:10337000D0050020850C000085490000C005002014
:103380001002002045350000F0B5DE4657464E4697
:103390004546E0B587B004000E00049317236B4444
:1033A0001A70D1B27F220A401A700278417809025D
:1033B0001143827812040A43C5782D0615433078EC
:1033C00028229046A8440001244A91464844244AB1
:1033D00093460392424602920193012200920023F7
:1033E000002200211F4FB8476B461B8A9A460023D4
:1033F0000393414602911099019151460091002298
:1034000001215846B847707800014844164989465A
:10341000039116498B460291414601910122009287
:10342000002300220021B847002303935B46029348
:10343000434601935346009300230022002148464F
:10344000B847211D32002800094B984707B0F0BC4F
:10345000BB46B246A946A046F0BDC0464003002088
:10346000D0050020850C0000C005002010020020BF
:1034700045350000F0B585B005000E001400802130
:1034800089030020174B98472523E35C1B010F227B
:103490006A441370009201237F2231002800124FEA
:1034A000B8472423E35C002B09D0012B10D08021E6
:1034B000890300200D4B9847012005B0F0BDE3695A
:1034C000227E216A009131002800094CA047EEE7D6
:1034D000E369227E216A009131002800024CA04756
:1034E000E5E7C046E514000089330000F51400004C
:1034F0009932000070B582B014001A0006AB1E7835
:1035000007AB1D782423CE54089B8B61099BCB61AC
:103510000A9B0B622523CD54034B0193009123009A
:10352000024CA04702B070BD75340000292F000086
:1035300010B515300023FF220321014CA04710BD18
:103540004D2B0000F8B507000D00140010781C4E3C
:10355000B0476078B04738001A4B98472379E27833
:1035600020780221184FB8472379A2786078022189
:10357000B8472B786A7812021A43AB781B041343BE
:10358000E978090619432879104B98472078104F9D
:10359000B8476078B84760780E4B98472078B047B6
:1035A0006078B0472B786A7812021A43AB781B0414
:1035B0001343E978090619432879074B9847F8BD62
:1035C000650D0000E5190000F10C0000F514000085
:1035D0003D0D0000F5350000E5140000034B1B68AD
:1035E0001B6A1978024A3F23D15470476C050020AA
:1035F0000048004170B584B00390084C23681D6AF0
:1036000003AA1A62064B00930023022202210548F6
:10361000054EB04723681D6204B070BD6C050020E4
:10362000DD3500004E480041A92B000070B5254B48
:1036300000221A705A709A70DA700FE0214CE0681C
:10364000C018214B9847A3681B18A3601D4BDB785B
:10365000002B03D01D4B1B68002B1FD1194C0123DD
:10366000FF22002120001A4DA84700232370637811
:10367000002B25D1174B9847124B9B78002BE5D098
:10368000154B1B78002BE1D10E4B5A689B68D11A61
:103690009A42D3D10B4B00229A70D7E70B4B196893
:1036A000084C20696369C0180C4B98476369C018BF
:1036B0006061A3699842D1D1024B0022DA70CDE754
:1036C00070BDC046E005002055240000980400208D
:1036D0004D2B0000C1220000940400209124000022
:1036E000F8B5CE46474680B506008846154F80257A
:1036F0007D51BFF34F8FBFF36F8FC022920406211D
:103700000020114B9847114B9847114B984711498E
:10371000114C1C239946A1444346320048460F4EA3
:10372000B04748460E4B9847012220003430012311
:10373000524200210B4CA0473D60C0BCB946B04688
:10374000F8BDC04600E100E005150000051F0000BF
:10375000652200002D360000E0050020E127000072
:10376000C92800004D2B00008023054AD350BFF329
:103770004F8FBFF36F8F034B01221A707047C04603
:1037800000E100E0E0050020844608006146FFE714
:103790001FB500F065FB002801D40021C8421FBD01
:1037A00010B500F0E5FA4042013010BD10B500F050
:1037B00057FB002801DB002010BD012010BDC046D2
:1037C00010B500F04DFB002801DD002010BD0120E8
:1037D00010BDC04610B500F0F3FA002801DC00204F
:1037E00010BD012010BDC04610B500F0E9FA002858
:1037F00001DA002010BD012010BDC0469E2110B589
:10380000C905041CFFF7F0FF002803D1201C00F0BD
:1038100045FE10BD9E21201CC90500F0ADFC00F046
:103820003DFE80231B069C466044F2E7F8B5430248
:103830004500C40F4802420A94464A005F0A2D0E12
:103840009B09120EC90F80098C4222D0AE1A002E9D
:103850000DDD002A2DD1002800D183E0721E012E3B
:1038600000D11BE1FF2E00D1A2E0160027E0002EC0
:1038700048D0561B002D00D0C1E0002B00D1F7E04E
:10388000741E012E00D12DE1FF2E00D18EE0260006
:10389000BAE0A91A002900DC8CE0002A46D0FF2DEE
:1038A00000D185E08022D20410431B2949DD013379
:1038B00016E0FF2D00D17BE08022D20410430122CC
:1038C0001B2E07DC2021891B02008840F240411E8C
:1038D000884102439B1A5A0151D407221A4042D010
:1038E0000F221A40042A00D004335A013BD5681C29
:1038F000FE2D34D09B015B0AC0B2C0051843E4071B
:103900002043F8BDFE266A1C164200D08BE0002D35
:1039100000D0B1E0002B00D1DFE0002869D01A1AF6
:10392000560100D4FBE00C00C31A3CE0002800D193
:10393000B7E04A1E012900D1AAE0FF2938D01100C2
:10394000B3E702002026CA40711A8840411E884110
:1039500010431B185A01C0D50135FF2D6CD1FF2033
:103960000023CAE73500DB08FF2D44D1002BF6D039
:103970008022D20313435B02FF205B0ABDE79E0156
:10398000B609300000F038FE05388640854220DC5C
:103990002022401B0130121A33009640C340721E91
:1039A0009641002533435A079AD19EE70C00030045
:1039B000DB08DBE7002910D0511B002D43D1002B81
:1039C00000D193E04D1E012962D0FF29EFD02900DC
:1039D0003EE0554B2D1A3340E5E7FE216A1C1142AB
:1039E0003BD1002D6AD1002B00D18EE0002800D001
:1039F0008DE00025DB085B025B0AE8B27DE7FF2A69
:103A0000D4D08024E404234301241B2E07DC20258A
:103A1000AD1B1C00AB40F4405D1EAB411C43031BBF
:103A200015000C0057E71E1A72012ED4002EA8D1E3
:103A300000240020002360E701223C491A405B0873
:103A40000B401343AFE7FF2AB1D08025ED042B4391
:103A50001B2928DD1500431C42E7FF2A00D17EE721
:103A60001B185B0815005A0700D039E7DB08C2E7CE
:103A70000C003500030076E7002B3AD1002895D1E1
:103A800080230024FF20DB0337E70C00C61A78E709
:103A90001B1802255A01CFD4013D1EE701251B1A30
:103AA00019E70D005FE71D002026CD40711A8B40FD
:103AB000591E8B412B431B1815004BE7002B00D1DF
:103AC00075E7002800D173E78022D203974202D322
:103AD000944500D20300DB084AE70028A8D00C0078
:103AE000030086E70C00C31A0135F4E60D0003005D
:103AF00039E7002800D15BE78022D2039742EAD35E
:103B00009445E8D20C000300E5E7030071E71B18B9
:103B10005A01ABD5044A01351340DB086BE7131E8D
:103B200086D0DB0867E7C046FFFFFFFBFFFFFF7D96
:103B3000F0B54F464646D6464402C0B547000E1C77
:103B4000640A3F0EC50F002F3CD0FF2F42D0002348
:103B5000802299469A46E400D20414437F3F7302C0
:103B60005B0A984673001B0EF60F002B1BD0FF2B31
:103B700013D042468021D200C90411438846002058
:103B80007F3B2900FF1A4B467140C9B20F2B00D969
:103B9000B5E0744A9B00D3589F464346002B3FD163
:103BA000FF3F023303E04346002B2DD101232900C0
:103BB0004A467140C9B21A430E2A38D86A48920060
:103BC00082589746002C13D104239946033B0027C3
:103BD0009A46C4E7002C05D108239946063BFF27E7
:103BE0009A46BCE70C239946093BFF279A46B6E75D
:103BF000200000F001FD7627431F9C4000237F42F8
:103C000099469A463F1AAAE7404600F0F5FC42461C
:103C1000431F9A4076235B421B1A90460020B0E770
:103C200003234A461A4391460320FC33A9E70D00BB
:103C3000FF200022C005ED0710432843E0BCBA4630
:103C4000B146A846F0BD0D0000200022F2E7534621
:103C5000022BEDD0032B33D0A046012B05D1002041
:103C60000022E7E7350003287AD03B007F33002BA2
:103C70002DDD4246520707D00F2241460A40042A52
:103C800002D004229446E0444246120105D5424641
:103C9000364B1A403B0090468033FE2BC8DC424630
:103CA0009201520AD8B2C5E780220025FF20D20334
:103CB000C0E78022D203144202D04346134249D0C7
:103CC0008022D20322435202FF20520AB2E701228D
:103CD000D31A1B2BC3DC4246DA4043469E37BB4017
:103CE000591E8B411A43530704D00F231340042B52
:103CF00000D00432530129D5012000229AE7424620
:103D000063015501AB4215D21B200022013F012661
:103D10001C0052005B00002C01DB9D4201D85B1BA4
:103D2000324301380028F3D1581E8341134398468B
:103D30000D009AE71A2001225B1BE8E7023B5A427A
:103D400053415B4235000022D8B273E79201002054
:103D5000520A6FE71A4352023500FF20520A69E700
:103D60004446ADE7744A0000B44A0000FFFFFFF785
:103D700070B542004E024C0045026D0A120EC30F90
:103D8000760A240EC90FFF2A10D0FF2C0CD0012078
:103D9000A2420AD1B54208D18B420FD0002A04D1E9
:103DA0002800431E984100E0012070BD0120FF2C37
:103DB000FBD13543F9D14B401800F6E70020F4E77A
:103DC00030B5420044024D02C30F4800640A120E8F
:103DD0006D0A000EC90FFF2A19D0FF280BD0002A48
:103DE0001ED100280BD1002D27D0002C34D1002962
:103DF0002FD0080030BD002D28D1002A01D1002C81
:103E0000F5D08B4207D1002B23D01800F2E7002C0D
:103E10001CD1FF2814D0581E022318400138E9E7AE
:103E20000028F8D08B42F6D18242F4DCEBDBAC42C6
:103E3000F1D80020AC42DDD2E5E7002CDAD0EAE789
:103E4000002D03D18B42E6D10020D3E7022040426F
:103E5000D0E701204042CDE78B42E8D0DBE7C04607
:103E600030B5420044024D02C30F4800640A120EEE
:103E70006D0A000EC90FFF2A1AD0FF280ED0002AA3
:103E80001ED100280ED1002D2AD0002C0CD08B4240
:103E90001DD0581E02231840013810E0002D0DD10E
:103EA000002A20D1002C1ED1002923D0080006E0D2
:103EB000002C03D1FF28ECD1002D17D0022030BDFB
:103EC0000028E6D08B42E4D18242E2DC04DBAC4243
:103ED000DFD80020AC42F2D2002B0BD01800EEE766
:103EE000002CECD0D5E78B42D3D1F5E700208B42F4
:103EF000E5D0CEE701204042E1E7C046F0B54F46AD
:103F00004646D64643025B0A99464300C0B51B0E9F
:103F10000E1CC50F002B00D185E0FF2B00D18BE0DC
:103F20004A468021D200C90411437F225242904662
:103F300098440023894600279A4674027300640A55
:103F40001B0EF60F002B64D0FF2B1FD080227F3B6F
:103F5000E400D204434400201443591C0A2F2BDCF4
:103F60007540022F22DC013F012F00D9BBE002285F
:103F70006BD001282AD100200022C005ED07104394
:103F80002843E0BCBA46B146A846F0BD002C64D038
:103F900003224146434617432A000131FF33724052
:103FA000FF310A2F00DDD7E0150003200122BA40BF
:103FB000A627FF003A4220D05346022B45D0032BC0
:103FC00000D1BBE050464C460128D4D00B007F33D3
:103FD000002B70DD620704D00F222240042A00D09B
:103FE0000434220103D5634B1C400B008033FE2BAD
:103FF0002BDCA201520AD8B2BFE79027BF003A4299
:1040000026D1B93FFF3F17426DD03500A146824609
:10401000D2E7002C41D101231F4343460120591C04
:104020000A2F9DDDC8E74B46002B27D10023984679
:10403000013304279A4680E74B46002B18D1FF2313
:104040009846FD3B08279A4677E7FF20002294E731
:1040500080220025FF20D2038FE702231F4343461F
:10406000591CFF310A2FA7DC0220FF33754078E787
:10407000FF239846FC3B0C279A465EE7484600F033
:10408000BBFA4A46431F9A4076235B421B1A984666
:104090000023914600279A464FE7200000F0ACFA33
:1040A000431F9C4043461B1A763B0020591C0A2F95
:1040B00000DC55E780E70122D31A1B2B00DD5AE70D
:1040C0009E3122008C40DA40631E9C4122435307FC
:1040D00004D00F231340042B00D00432530137D5F2
:1040E0000120002249E7200C4A462404240C270022
:1040F000160C1204120C74435743464350433A0CB7
:1041000000191218944203D9802040028446664464
:104110003F0410043F0CC0198401671EBC41120CFF
:10412000800E921904439201144312010ED501230B
:1041300062081C40144349E73500A14680224B46E3
:10414000D2031A435202FF20520A16E719003DE734
:1041500092010020520A10E70F2FEDD180224B462A
:10416000D2031342EAD01442E8D13500FF202243A3
:1041700003E7C046FFFFFFF7F8B543024500C40F51
:104180004802420A94464A005E0A2D0E9B09120E0E
:10419000C90F8009FF2A23D001277940AF1A8C422A
:1041A0000FD0002F00DC5DE1002A2FD1002800D1C4
:1041B00090E07A1E012F00D11AE1FF2F1CD01700CA
:1041C00029E0002F00DC59E1002A52D0FF2D13D046
:1041D0008022D20410431B2F00DC6AE001332BE065
:1041E00000283BD08C424DD0FF2D00D18FE0002D18
:1041F00000D1ABE00C000300DB08002B67D080226D
:10420000D20313435B02FF205B0A22E0FF2DF3D0B1
:104210008022D204104301221B2F07DC2021C91B5E
:1042200002008840FA40411E884102439B1A5A010D
:1042300056D407221A404ED00F221A40042A00D02A
:1042400004335A0147D5681CFE2D40D09B015B0A00
:10425000C0B2C0051843E4072043F8BD01277940E8
:104260008C42C1D1FF2D10D0002D00D1E7E00023FA
:10427000C2E700282ED07A1E012F7FD0FF2FBBD09F
:104280001700A8E7FF2D00D083E0FE276A1C174225
:1042900000D08DE0002D00D0ADE0002B00D1D2E0A9
:1042A000002800D0D1E00025DB085B025B0AE8B201
:1042B000CFE72021C91B02008840FA40411E8841F7
:1042C00010431B185A01B4D50135FF2D5AD1FF20D8
:1042D0000023BEE73D00DB08FF2D00D18DE7E4E7BA
:1042E0009E01B609300000F087F905388640854206
:1042F0001FDC2022401B0130121A33009640C340BD
:10430000721E9641002533435A0795D199E7FE273F
:104310006A1C174211D1002D5AD1002B00D189E01F
:104320000028C0D01A1A560100D496E00C00C31A17
:10433000EAE7584B2D1A3340E6E71E1A720144D4BF
:10434000002ECFD100240020002382E7FF25002B80
:1043500038D06E1E012D6AD0FF2D00D14AE701240E
:104360001B2E07DC2025AD1B1C00AB40F4405D1E5E
:10437000AB411C43031B15000C0058E71B1802251A
:104380005A0133D5012244491A405B080B401343BC
:10439000BAE7002D31D1FF35002B52D0691E012D17
:1043A00020D0FF2D29D01B2936DD1500431C43E703
:1043B000FF2A8CD01B185B0815005A0700D03BE77A
:1043C000DB0872E70C00030085E70C00C61A89E7DA
:1043D000002B14D1002800D00CE780230024FF20FC
:1043E000DB0336E71B1801355A01CBD4013D20E72A
:1043F00001251B1A1BE7002B01D10300FCE6002856
:1044000000D1F9E68022D203964203D3944501D22B
:104410000C000300DB08F2E61D002026CD40711AD7
:104420008B40591E8B412B431B1815004AE70C008B
:10443000C31AFCE6002885D00C00030033E7FF25F3
:10444000AAE7030047E703002DE71B185A01B7D579
:10445000104A01351340DB0827E7131E00D171E72E
:10446000DB0822E7002F00D151E7561B002D01D1B8
:1044700035006CE78024E404234370E7002F00D16B
:1044800003E7511B002D01D10D0085E78025ED04C8
:104490002B4388E7FFFFFFFBFFFFFF7D4102420048
:1044A000C30F490A0020120E7E2A03DD9D2A02DD79
:1044B000094A98187047802000040143952A07DCB8
:1044C0009620821AD1404842002BF3D10800F1E730
:1044D000963A9140F7E7C046FFFFFF7F70B500288E
:1044E00013D0C317C5185D40C40F280000F084F82E
:1044F0009E2301001B1A962B0FDC082834D00839A4
:104500008D406D026D0AD8B202E000240020002523
:10451000C0052843E407204370BD992B16DC421FD9
:10452000052800D095402A00114802406E0709D0A6
:104530000F263540042D05D00432550102D59F23A6
:1045400002405B1A9201550AD8B2E1E70522121A1D
:104550002800D040020008001B3085402800451E7E
:10456000A84102431500DEE76D0296206D0ACFE7F1
:10457000FFFFFFFB70B5041E0ED000F03DF89E2338
:1045800001001B1A962B0CDC08282FD008398C4010
:104590006402640AD8B201E000200024C005204370
:1045A00070BD992B16DC421F052800D094402200D4
:1045B00010480240650709D00F252C40042C05D077
:1045C0000432540102D59F2302405B1A9201540A1F
:1045D000D8B2E3E7020020001B3290400200501ED8
:1045E00082410520401AC4401443E0E7640296204B
:1045F000640AD3E7FFFFFFFB1C2101231B04984241
:1046000001D3000C10391B0A984201D3000A083963
:104610001B09984201D30009043902A2105C40181A
:104620007047C046040302020101010100000000BE
:1046300000000000F0B50500830749D0541E002A91
:1046400045D003000326CAB202E00135013C3ED347
:1046500001332A703342F8D1032C30D9FF220A40AB
:104660001502AD182A04AD180F2C34D92700103FBD
:104670003F093E01B4461E001A001036664415601C
:1046800055609560D56010329642F8D101373F01F0
:10469000DB190F270C22274022403C00002A0ED0B5
:1046A0003E1FB608B400A4461A001C1D644420C274
:1046B000A242FCD103240136B6009B193C40002CD9
:1046C00005D0C9B21C19197001339C42FBD1F0BD51
:1046D00003001400C0E72700E2E7C04670B50D4BA9
:1046E0000D4D5E1BB610AB4205D0002408CD013441
:1046F0009847A642FAD800F0FBF9084B084D5E1B1C
:10470000B610AB4205D0002408CD01349847A6422C
:10471000FAD870BDFC4A0000FC4A0000044B0000BF
:10472000FC4A00007047C0467047C046F0B505001F
:104730000F2A33D90324030026000B431E401C42DA
:1047400037D11500103D2D0903000C00AC462F0198
:104750003F1865685D60A5689D60E568DD60256857
:1047600010341D601D001033BD42F2D165460F2389
:104770000C2401352D0149191340451914421AD052
:104780008C59AC5104369C1B032CF9D8043B9B0874
:1047900001339B00ED18C91803231A40561E002A46
:1047A00006D00023CC5C1A00EC5401339642F9D1B8
:1047B000F0BD561EF5E71A00F0E7C04610B58307B6
:1047C0000AD00300032102E001330B4205D01A781E
:1047D000002AF9D1181A10BD030019680C4A0D4CB3
:1047E0008A188A4322420FD15968094A04338A1829
:1047F0008A43224208D15968054A04338A188A43F9
:104800002242F1D000E001331A78002AFBD1E1E71F
:10481000FFFEFEFE80808080034B10B5002B02D08F
:10482000024800F005F810BD0000000041480000FB
:1048300010B5010000230022002000F015F810BD83
:1048400070B5074C074D641BA41005D0013CA300B4
:10485000EB589847002CF9D100F054F970BDC046D0
:10486000144B0000104B0000F0B5D6464F464646AC
:104870009846224BC0B50600186899460F0092462C
:10488000FFF750FF1E4B1D68002D2DD06C681F2CAC
:104890002DDC002E0ED1631C6B604B460234A4004D
:1048A00018686751FFF740FF0020E0BCBA46B146E8
:1048B000A846F0BD882251462800A300EB18995065
:1048C000873AA2408930FF3001681143016084219A
:1048D000404649005850022EDDD129008D31FF316C
:1048E0000B6813430B60D6E7064D1D60CEE74B46C1
:1048F0001868FFF719FF01204042D6E75400002056
:10490000280600202C0600200000004001000000C6
:104910000000008001000000000107080100000005
:104920004C6F72656D20697073756D20646F6C6F6C
:10493000722073697420616D65742C20636F6E73CF
:104940006563746574757220616469706973636905
:104950006E6720656C69742E204675736365206DE3
:104960006178696D75732064617069627573206E1A
:104970006973692C206E65632065726174206375AC
:104980007261652E0000000088160000AC16000061
:104990008C16000090160000941600009816000077
:1049A0009C160000A2160000DC1C0000F01C000099
:1049B000B61D0000F01C0000B61D0000FC1C00002D
:1049C000081D0000B61D0000581D00006C1D0000F1
:1049D000B61D0000961D00003031323334353637B5
:1049E0003839414243444647484A4B4C4D4E50515A
:1049F000525354565758595A0000000046696E6C7D
:104A0000657920426C61696E65000000474E433253
:104A1000000000000403090412010002EF0201403B
:104A200009120E0000020102030103002E2E2E2D9A
:104A30002D2D2E2E2E00000096290000282A000081
:104A4000362A0000442A0000522A0000602A000092
:104A50009C29000000000000000000000000000091
:104A6000052C0000060000003000000080BB0000A4
:104A7000006CDC02FE3C00002E3C0000463C0000C6
:104A8000643C0000463C0000A83C0000463C00009E
:104A9000643C00002E3C00002E3C0000A83C0000BE
:104AA000643C00004E3C00004E3C00004E3C0000C8
:104AB000B23C00002E3C00002E3C0000463C0000B2
:104AC0003C3D0000463C0000A83C0000463C000085
:104AD0003C3D00002E3C00002E3C0000A83C0000A5
:104AE0003C3D00004E3C00004E3C00004E3C0000AF
:104AF000F8B5C046F8BC08BC9E467047194800008F
:104B00002D010000F8B5C046F8BC08BC9E467047B1
:044B1000010100009F
:104B140038C101000000080009024600020100C07B
:104B240000080B0002020200000904000001020256
:104B340000000524001001042402020524060001DB
:104B4400070581030800FF09040100020A000000B0
:104B54000705020220000507058202200005000067
:084B6400FFFFFF7F2406002083
:00000001FF
