:10000000602800205501000051010000510100004E
:1000100000000000000000000000000000000000E0
:10002000000000000000000000000000510100007E
:10003000000000000000000051010000510100001C
:100040005101000051010000510100005101000068
:100050005101000051010000510100005D3F00000E
:100060005101000051010000510100005101000048
:100070005101000051010000510100005101000038
:10008000510100005101000051010000AD2E00009F
:100090005101000051010000510100005101000018
:1000A0005101000051010000510100005101000008
:1000B00000000000510100000448054B10B58342C8
:1000C00003D0044B002B00D0984710BD005800000F
:1000D000005800000000000006480749091A8B106C
:1000E000C90FC91810B5491003D0044B002B00D01C
:1000F000984710BD005800000058000000000000A4
:1001000010B5074C2378002B09D1FFF7D5FF054B1D
:10011000002B02D0044800E000BF0123237010BD73
:10012000A00000200000000000580000054B10B5A2
:10013000002B03D00449054800E000BFFFF7CCFFC7
:1001400010BDC04600000000A400002000580000C0
:10015000FEE7000010B5124B124A934207D0114B34
:100160000F4A01E002CA02C30F498B42FAD30F4B78
:1001700001E0002204C30E4A9342FAD30D4BFF2242
:1001800093430D4A93600D4B002B00D098470C4BC6
:1001900098470C4B002B00D098470B4B9847FEE735
:1001A0000058000000000020A0000020A000002057
:1001B0005C0800200000000000ED00E000000000EE
:1001C000A951000000000000392E000010B5064CB7
:1001D0002000064B9847064B0360042302220121AE
:1001E0002000044CA04710BDBC000020654000006A
:1001F000D3B1C09F69400000F0B5C64600B582B0DB
:100200001A4D280040301A4CA04707002800A0478C
:1002100080463E78F6B21D2E25D80024002507E042
:10022000434658190099134B9847019BED18013428
:10023000B44211DA6300FB18587801AA69460E4BE4
:100240009847002803D0019A53193B2BE8D9002086
:1002500002B080BCB846F0BD04482B000222022147
:10026000064CA047F4E70020F2E7C046BC0000209F
:1002700065400000F95100000D06000069400000D3
:1002800010B5064C2000064B9847112303800F3B06
:10029000022206212000034CA04710BDBC00002014
:1002A000654000006940000070B582B0144E300017
:1002B0004030144DA84704003000A84705002488AA
:1002C00000230193E4B26B46D91C20000E4B9847E3
:1002D000002801D102B070BD6B4603331B782B7030
:1002E000691C3A2301AA2000084CA0470028F1D03D
:1002F000019B0133024802220721054CA047E9E790
:10030000BC00002065400000D1050000450600004B
:100310006940000010B51548154B9847002806D0D5
:100320001248144B9847800704D5002010BD124B8B
:100330009847F5E70D48114B9847062813D008D881
:1003400001280DD0022802D10D4B9847EEE700207E
:10035000ECE7072802D10B4B9847E7E70020E5E7D9
:10036000094B9847E2E7094B9847DFE7FC0000207C
:1003700095400000C9400000152E0000C540000057
:10038000F9010000A9020000CD0100008102000077
:10039000F0B583B0002303E001AA0021D15401335A
:1003A000032BF9DD2AE00025280003B0F0BD01345D
:1003B0002848294B9847A04207DD01AB1B5D002B65
:1003C000F5D1BB195C700136F1E7002EECD03E7020
:1003D000224D2800224B98478024E403210001206D
:1003E000204B98471422290000201F4B98470020DB
:1003F0001E4B9847210001201D4B9847154C142295
:10040000210000201B4B984700201B4B98472000E1
:100410001A4B9847051EF1D00E48194B98470028F3
:10042000C1D10C4C20000C4B9847012301AA135456
:100430006A46D370134903322000134B98476B462A
:10044000DB78002BDAD10548104B984707000024D1
:100450000026ADE73C0100208B4100005001002048
:1004600091410000CD1B0000D50B00005D0C000089
:10047000DD1B0000BD0C0000450D000055410000D3
:1004800081410000FC000020B1410000CD4000008F
:1004900070B584B005000F236B4401221A7000244C
:1004A0001AE0022229E0230000221A491A480F26E6
:1004B0006E440096194EB047002D21D115491422E3
:1004C0000020174B98470020164B98478021C903FE
:1004D0000120154B984701340F236B441B78002BE8
:1004E00014D0002DDFD01148114B98470378A34258
:1004F0000CD0013BA342D4D0002200194378D4E7AA
:100500008021C90301200B4B9847D7E7012004B095
:1005100070BDC04650010020BC000020D14000004A
:10052000D50B00005D0C0000DD1B00003C0100202D
:10053000CD400000CD1B000010B502E00120074BAC
:100540009847074B98470028F8D0064B9847002853
:10055000F7D00020014B9847F3E7C0469104000014
:100560009103000015030000042811D00B281CD0B3
:10057000032801D000207047481EC0B20B28F9D8CC
:100580000420186001390F4B89005B181360F2E7F3
:1005900008000D38C0B20128ECD8042018600D39CD
:1005A000094B89005B181360E5E708000F38C0B2FB
:1005B0000228DFD8012018600F39044B5B18136044
:1005C000D9E7C0466801002098010020A001002062
:1005D000431EDBB2102B17D8002809D00C280BD9EA
:1005E0000E280DD9112810D80B230B7001200CE018
:1005F00001230B70013008E003230B70012004E09D
:1006000004230B70012000E00020704770B582B019
:1006100004000D0016006B46D91D084B98470028B2
:1006200002D1002002B070BD6B46D87933002A0099
:100630002100034CA0470028F4D1F2E7D1050000C7
:1006400069050000F0B5C64600B50D0017001C0096
:10065000112817D80123984606000C4B8000C0587B
:100660000B4B98470130A04200D804003C60074B78
:10067000B600F15822002800064B9847404680BC3F
:10068000B846F0BD002398460020E5E700000020B2
:1006900089520000F951000070B58AB01B4C22004D
:1006A0004032082300216846194DA8476846194B77
:1006B0009847226C184B9A421CD1144C636C01333E
:1006C000636422004432042304216846134DA84782
:1006D0006846104DA84740232200202168460C4E52
:1006E000B0476846A847236C2363636C63630120AB
:1006F0000AB070BD054A13644032042300216846E5
:10070000064CA0476846034B9847D6E7680100208F
:100710008907000079390000D3B1C09FB5070000F8
:1007200010B584B08024E405210001200B4B9847CC
:10073000210001200A4B984702AB0A490A6802923D
:10074000097919710848802109020091039B074922
:10075000074CA047012004B010BDC046CD1B0000CF
:10076000BD1B0000B8550000B0010020001400427D
:100770006D14000010B50248024B984710BDC046EA
:10078000B00100201916000030B585B0064D074CA9
:10079000039202930191002300932A00010020009C
:1007A000034CA04705B030BDB0010020B4020020CA
:1007B0004539000030B585B0074D084C03920293CF
:1007C00001910123009300232A0001002000044C22
:1007D000A04705B030BDC046B0010020B4020020E3
:1007E00045390000F0B583B08024240521000020A5
:1007F000154EB04721000020144FB8478025AD03A7
:1008000029000020124B984729000020B8472900F2
:100810000020B047009400236A4613710D4822005F
:10082000019B0D490D4CA047041E07D1802189036F
:100830000020074B9847200003B0F0BD0548084B47
:1008400098470400F2E7C046CD1B0000BD1B000026
:10085000DD1B0000BC01002000140042ED19000067
:10086000311B000010B5802189030020094B9847F7
:1008700009480A4B9847041E06D1802189030020AD
:10088000074B9847200010BD0348064B98470400CB
:10089000F3E7C046CD1B0000BC0100205D1A00003C
:1008A000DD1B00008D1B000010B586B0094A110049
:1008B0000C3109481300343304930E2303931F3380
:1008C00002930023019300930233044CA04706B027
:1008D00010BDC046BC010020B4020020E93B00006E
:1008E000F0B5C64600B586B08C4C20000C308C4B61
:1008F0009847666C0F239C469B1B8A4818413422FC
:10090000A35E190209B29BB21B0A194303004B43B1
:10091000854F3B603622A35E1A0212B29BB21B0ABD
:100920001A43030053437B603823E55E2B021BB25E
:10093000ADB22D0A2B4398465843B860A56C60466B
:10094000451B7A4828413A23E55EAC462D022DB27C
:1009500063469BB21B0A1D434543FD603C25635F14
:100960001D022DB29BB21B0A1D4345433D613E2330
:10097000E45E25022DB2A4B2240A2C4360437861C0
:100980004346D8171B1843409BB2D0171218424059
:1009900092B2C8170918414089B2101C8A4200D28D
:1009A000081C1A1C81B28B4200D2021C12B2032E08
:1009B00002D05F4B9A4240DC002E02D05D4B9A423F
:1009C00055DD56483E23C25E13021BB292B2120A94
:1009D0001343DA179B1853409BB23C22815E0A02F4
:1009E00012B289B2090A0A43D11752184A4092B288
:1009F0003A21405E010209B280B2000A0143C817E1
:100A00000918414089B2101C8A4200D2081C1A1CE5
:100A100081B28B4200D2021C12B2404B9B6C032B62
:100A200002D043498A423CDC002B02D041498A4231
:100A300055DD06B080BCB846F0BD0136374A566475
:100A4000F6B2760006231E404633D65411005031CC
:100A5000394813004C330493012303931424029464
:100A6000123C019400930133344CA047A9E7013EA6
:100A70002A4A5664F6B2760006231E404633D65400
:100A8000110050312C4813004C330493012303937D
:100A900014240294123C019400930133274CA04784
:100AA0008FE701331D4A9364DBB25B0006210B40E4
:100AB0007231535411007C311F4813007833049372
:100AC00001230393029302240194009301331B4CEE
:100AD000A0478021C9030120194B9847A9E7013B92
:100AE0000E4A9364DBB25B0006210B407231535413
:100AF00011007C31104813007833049301230393D1
:100B0000029302240194009301330C4CA0478021EE
:100B1000C90301200B4B98478BE7C046BC0100205E
:100B2000253C000074462B01680100203B944200E4
:100B30003373000033330000B4020020E93B0000AF
:100B4000CD1B0000DD1B000070B5C0229200022109
:100B50000020184CA047C022120302210020A04709
:100B6000C022120202210120A047C02292020221CB
:100B70000120A0479625AD012B00002201210E483F
:100B80000E4CA0472B00012203210D48A0472B004B
:100B9000012203210B48A0472B00002201210A4813
:100BA000A0478021E0204900C000084B9847084B2F
:100BB000984770BDED1B000000080042F5220000C0
:100BC000000C004200180042001C0042D53E00000C
:100BD0005929000070B50E001300042825D88000A4
:100BE000134D2C58A74611003000124B9847012096
:100BF00070BD114932001148114CA0470120F7E7A0
:100C00001049320010480E4CA0470120F0E70F4970
:100C100032000F480A4CA0470120E9E70D49320095
:100C20000D48074CA0470120E2E70020E0E7C0465E
:100C3000C05500007D3F000024560000000800421F
:100C4000213D00002C560000000C004234560000EC
:100C5000001800423C560000001C004210B5042859
:100C60001BD880000E4B1B589F460E4B9847012007
:100C700010BD0D480D4B98470120F9E70C480B4B70
:100C800098470120F4E70B48084B98470120EFE70D
:100C90000948064B98470120EAE70020E8E7C046EC
:100CA000D4550000C93F000024560000913D0000CB
:100CB0002C560000345600003C56000070B50E0063
:100CC0001300042825D88000134D2C58A746110086
:100CD0003000124B9847012070BD11493200114875
:100CE000114CA0470120F7E71049320010480E4C84
:100CF000A0470120F0E70F4932000F480A4CA047F7
:100D00000120E9E70D4932000D48074CA0470120BA
:100D1000E2E70020E0E7C046E8550000E53F0000BC
:100D20002456000000080042A13D00002C5600009F
:100D3000000C004234560000001800423C560000EF
:100D4000001C004210B504281BD880000E4B1B5815
:100D50009F460E4B9847012010BD0D480D4B9847FC
:100D60000120F9E70C480B4B98470120F4E70B48AA
:100D7000084B98470120EFE70948064B98470120A8
:100D8000EAE70020E8E7C046FC5500001D400000EF
:100D900024560000113E00002C560000345600007E
:100DA0003C56000010B5042803D880000D4B1B589A
:100DB0009F46002014E00C480C4B984701200FE0A0
:100DC0000B480A4B984701200AE00A48074B98470E
:100DD000012005E00848054B9847012000E001206C
:100DE00010BDC0461056000000080042512300000C
:100DF000000C004200180042001C0042F8B5CE462C
:100E0000474680B506212A482A4B9847002819D022
:100E100029492748294B9847002816D0002201214C
:100E20002348274B9847002812D02148254B984744
:100E3000002810D08022120404210120224B984760
:100E400000252EE0214B9847E2E7204B9847E5E745
:100E50001E4B9847E9E71D4B9847EBE7144B984624
:100E6000FC22920501211800154FB8478026F60391
:100E700031000120164B9847164B1A6893009B18B7
:100E80001C01E41A2000144B9946984700220121C6
:100E90004046B84731000120104B98472000C84712
:100EA0000135012DDADDC0BCB946B046F8BDC046FB
:100EB000003C0042391C0000009030459D1D0000A0
:100EC000291E00000D1D0000ED1B0000152E000066
:100ED000CD1B0000385700003D330000DD1B000033
:100EE00070B50A4B9847040009480A4B9847051EFD
:100EF00000D02500084B9847041E00D02C0007485E
:100F0000074B9847002800D0200070BD65080000FE
:100F10001003002049120000750700002C03002078
:100F2000DD16000070B584B0C0221204022100203A
:100F3000354CA0478022520303210020A047802483
:100F4000640521000020314EB04780252D06290080
:100F50000120B047210000202D4CA047290001208E
:100F6000A0472C4B01930023009302330022002161
:100F700029482A4CA047002839D0294B9847294BAB
:100F80009847002836D0284B9847002835D002AB28
:100F9000802252050292002119712448039B1E49A8
:100FA000234CA04700282BD0224B984702AB224C61
:100FB0002268029221791971174D20480721019169
:100FC0008021C9030091039B29001D4EB047802258
:100FD00090211C48083400942B00920009011A4CFF
:100FE000A0471A4B98471A4B984704B070BD194B4D
:100FF0009847C2E7174B9847C5E7164B9847C6E78F
:10100000144B9847D0E7C046ED1B0000CD1B0000F5
:10101000BD1B0000808D5B000014004251200000C9
:1010200039130000490B0000E50700001003002001
:10103000C512000021070000445600002C030020C8
:1010400055160000B4020020E135000099060000AA
:10105000E10E0000152E000030B583B0124B98470A
:1010600000281ED0802380221049114C5B00120101
:101070002000104DA84720000F4B98470F4B984772
:101080000F4B0193E0231B030093019800990D4B34
:10109000984701900C4B98470C4B18680C4B98479D
:1010A000FAE70C4B9847DDE7250F0000FD0D000027
:1010B00060020020D52E0000BD2F0000FD100000B2
:1010C0008F020000E14100003905000038570000A0
:1010D0003D330000152E000010B5044B9847044B1B
:1010E0009847044B1868044B9847F6E7A908000096
:1010F000E1080000385700003D33000070B5C02300
:10110000B0220549054C9B0012012000044DA84760
:101110002000044B984770BDD910000088020020C1
:10112000D52E0000BD2F000070B504000E00150084
:10113000037D427D12021A43837D1B041343C17D4C
:1011400009061943007E114B9847237C627C1202EA
:101150001A43A37C1B041343E07C000618433100B0
:101160000B4B9847237D627D12021A43A37D1B041B
:101170001343E17D09061943207E064B984768001A
:1011800040194000044B984770BDC046DD1B00006D
:10119000B9200000CD1B00009D210000F8B504001F
:1011A000A02647E0237D627D12021A43A37D1B0423
:1011B0001343E17D09061943207E204B9847237C89
:1011C000627C12021A43A37C1B041343E07C0006DA
:1011D000184331001A4FB847237C627C12021A432D
:1011E000A37C1B041343E07C000618430021B8478E
:1011F0000500237C627C12021A43A37C1B04134368
:10120000E07C000618430021B8470700237D627D7B
:1012100012021A43A37D1B041343E17D09061943FF
:10122000207E084B98473300A03B2D023D43E552FA
:101230000236F6B2AE2EB5D9F8BDC046DD1B0000B1
:10124000B9200000CD1B000030B50400837BC57BB6
:101250002D021D43FF232A009A43130000228273AC
:101260001B0AC3730020002314E042105200A25A4C
:10127000120A18E05B009BB20132072A09DC19B29E
:101280000029F7DA5900C0239B014B401BB29BB2E7
:10129000F2E701300F2809DCC207E6D54210520000
:1012A000A15AFF220A4053400022E6E71B0BA57318
:1012B0002A0AE2730F202840C01A43425841C0B2A4
:1012C00030BD000070B582B005000C0000920193A3
:1012D00008000E4B9847061E02D1300002B070BDC8
:1012E0002C74230A6B74230CAB74240EEC7428004A
:1012F000143005226946064B9847064A1E212800ED
:10130000054B98472800054B9847E6E7C91E0000A3
:10131000F9510000B80B0000291100009D110000D8
:101320000B2804D8034A3F23D054012070470020E3
:10133000FCE7C04600480041074B5A6920210A4398
:101340005A61DA690A43DA61044A054B5A63054A6D
:101350009A63054A1A80704700040040E0030020A9
:101360000048004140030020020F0000F0B505AC2A
:101370002688022B2DD8002923D08024E400002ABF
:1013800021D080252D012C431D02C027BF003D40E8
:101390002C4301252C4304804680002915D0591C7C
:1013A0007143069CA44661444160002A0FD001337A
:1013B0007343079A944663448360089BC36001208B
:1013C000F0BD0024DBE70025DDE70699ECE7079B8D
:1013D000F2E70020F4E7000070B50C0015001E00D5
:1013E0000E4B9847002812D0032E11D8032C11D889
:1013F000012C11D0A405C0231B041C402D02FC238A
:101400009B011D402C4376013443054A546470BD52
:101410000020FCE70020FAE70020F8E72113000095
:101420000048004110B5074B9847002809D0064AEC
:101430004E230221D1543E31535C02242343DBB2BC
:10144000535410BD211300000048004110B5054B56
:101450009847002805D0044940228B5C0224A3430E
:101460008B5410BD211300000048004130B583B0FB
:1014700004000092019306AB1D8801700B0A4370B3
:101480000B0C8370090EC170043005226946104BA5
:10149000984765722D0AA5722379627912021A4360
:1014A000A3791B041343E17909061943207A094BF8
:1014B00098472379627912021A43A3791B041343D4
:1014C000E17909061943207A034B984703B030BDF0
:1014D000F9510000BD1B0000CD1B000010B5040039
:1014E0000379427912021A4383791B041343C179A9
:1014F00009061943007A0E4B984723786278120246
:101500001A43A3781B041343E0780006184306210E
:10151000084B98472379627912021A43A3791B0476
:101520001343E17909061943207A034B984710BD0C
:10153000DD1B0000B9200000CD1B000010B5040029
:101540000379427912021A4383791B041343C17948
:1015500009061943007A0E4B9847237862781202E5
:101560001A43A3781B041343E078000618430421B0
:10157000084B98472379627912021A43A3791B0416
:101580001343E17909061943207A034B984710BDAC
:10159000DD1B0000B9200000CD1B000070B5040069
:1015A0000379427912021A4383791B041343C179E8
:1015B00009061943007A154B98472378627812027E
:1015C0001A43A3781B041343E0780006184305214F
:1015D0000F4DA8472378627812021A43A3781B04A0
:1015E0001343E078000618430021A847050023793B
:1015F000627912021A43A3791B041343E1790906A5
:101600001943207A034B9847280070BDDD1B00006A
:10161000B9200000CD1B000010B504000A4B98470C
:1016200020000A4B9847800701D4002010BD2000FD
:10163000074B98472000054B9847800701D40120AD
:10164000F4E70020F2E7C046DD1400009D1500001D
:101650003D15000070B582B004000092019306AB06
:1016600020CB1E7801700B0A43700B0C8370090E9F
:10167000C170083005226946154B984725712B0A21
:1016800063712B0CA3712D0EE5711F223240637B19
:101690001F218B4313436373237A627A12021A4326
:1016A000A37A1B041343E17A09061943207B094BF3
:1016B0009847237A627A12021A43A37A1B041343CF
:1016C000E17A09061943207B034B984702B070BDAD
:1016D000F9510000BD1B0000CD1B000030B583B0E8
:1016E0000400037A427A12021A43837A1B041343DA
:1016F000C17A09061943007B244B98472378627806
:1017000012021A43A3781B041343E078000618431F
:101710009F211F4B984700250FE023786278120223
:101720001A43A3781B041343E078000618430021F2
:10173000174B984701AB58550135022DEDDD237A43
:10174000627A12021A43A37A1B041343E17A090650
:101750001943207B0F4B984701AB1B781F2B0ED1F1
:1017600001AB5A78637BDB06DB0E80210B439A4288
:1017700008D101AB9B78012B06D0002000E00020AF
:1017800003B030BD0020FBE70120F9E7DD1B0000BE
:10179000B9200000CD1B000070B504000E0015003C
:1017A000027943791B021343827912041A43C179E7
:1017B00009061143007A154B98477F213140237861
:1017C000627812021A43A3781B041343E0780006E0
:1017D00018430F4EB0472378627812021A43A37859
:1017E0001B041343E078000618432900B04723790F
:1017F000627912021A43A3791B041343E1790906A3
:101800001943207A034B984770BDC046DD1B00008A
:10181000B9200000CD1B000070B504000D00037955
:10182000427912021A4383791B041343C1790906D2
:101830001943007A164B9847802149422943C9B27F
:101840002378627812021A43A3781B041343E078CA
:10185000000618430F4DA8472378627812021A43F6
:10186000A3781B041343E078000618430021A8471F
:1018700005002379627912021A43A3791B041343EA
:10188000E17909061943207A034B9847280070BD77
:10189000DD1B0000B9200000CD1B0000F0B5C646DE
:1018A00000B504000D0017009846027943791B0229
:1018B0001343827912041A43C17909061143007A4D
:1018C000194B98477F2129402378627812021A43E6
:1018D000A3781B041343E07800061843134B984782
:1018E00000260EE04346995D227863781B0213437D
:1018F000A5782D041D43E078000628430B4B98473C
:101900000136BE42EEDB2379627912021A43A379D3
:101910001B041343E17909061943207A044B9847C5
:1019200080BCB846F0BDC046DD1B0000B9200000F9
:10193000CD1B0000F0B5C64600B504000D00170031
:1019400098460379427912021A4383791B041343A0
:10195000C17909061943007A1B4B984780214942F7
:101960002943C9B22378627812021A43A3781B0470
:101970001343E07800061843144B9847002510E005
:1019800043465E192378627812021A43A3781B0437
:101990001343E0780006184300210C4B9847307041
:1019A0000135BD42ECDB2379627912021A43A37937
:1019B0001B041343E17909061943207A044B984725
:1019C00080BCB846F0BDC046DD1B0000B920000059
:1019D000CD1B000010B5032900D910BD0901CAB202
:1019E0007F21014B9847F8E799170000F0B583B0C5
:1019F00005000C00009201930800134B9847061E47
:101A000002D1300003B0F0BD2C70230A6B70230CA0
:101A1000AB70240EEC70281D052269460B4B9847CD
:101A20008022062128000A4CA0470A480A4FB847DE
:101A3000102203212800A047012206212800A047E8
:101A4000F0204000B847DCE7C91E0000F951000053
:101A500099170000D00101009D21000010B504007D
:101A60000021064B984700212000054B9847EA28A3
:101A700001D0002010BDE938FCE7C046D5190000B0
:101A800019180000F8B504000F00160003210B4BD5
:101A900098470C2203212000094DA8473A00042151
:101AA0002000A847320006212000A84781220521F6
:101AB0002000A8470348044B9847F8BDD5190000FB
:101AC0009917000060EA00009D210000F0B5C646AD
:101AD00000B582B004000F001500984603210F4E98
:101AE000B04701AB8C221A705F700D3AFF3A2A435F
:101AF0009A70032203212000094FB84709480A4B76
:101B0000984700212000B04743462A003B2120008F
:101B1000064CA04702B080BCB846F0BDD519000005
:101B20009D180000701700009D210000351900006D
:101B300070B504000021104EB04720220321200080
:101B40000E4DA84703212000B047072201212000A5
:101B5000A847012202212000A8470948094B9847BD
:101B6000012232212000084DA847082231212000FF
:101B7000A847012070BDC046D51900009917000084
:101B8000701700009D210000851A000030B583B059
:101B900001AC230002220021074DA8472378482BDF
:101BA00004D16378092B04D0002000E0002003B0AA
:101BB00030BD0120FBE7C046CD1A0000C001024B3A
:101BC0009C4660448160704700440041C001024B64
:101BD0009C4660448161704700440041C001024B53
:101BE0009C466044416170470044004110B50B06BB
:101BF000F02109050B400E49194313041C0C002B5E
:101C000005D02143C3010B4CA44663449962802351
:101C10005B029A420BD3090C090480231B060B4379
:101C2000120C1A43C001034B9C466044826210BDF3
:101C3000000001500044004110B52A4CA0423CD0A5
:101C40000FD9294CA04242D0284CA0421BD1284A8F
:101C5000146A80231B0223431362264B264A5A80B0
:101C60001CE0264CA04210D0254CA04209D1204AAD
:101C7000146A80235B01234313621E4B214A5A805E
:101C80000CE0002018E0002016E0194A146A8023B6
:101C90001B0123431362174B1B4A5A80154B5B7879
:101CA0005BB2002BFADB0B02E022D200134044228D
:101CB00013439BB20380012010BD0D4A146A802398
:101CC0009B01234313620B4B0E4A5A80E6E7084AF6
:101CD000146A8023DB0123431362064B064A5A80B1
:101CE000DCE7C0460034004200380042003C0042BD
:101CF00000040040000C00401D400000002C004289
:101D0000003000421C4000001B4000000F4A90427F
:101D100010D007D80E4A90420CD00E4A904209D0FB
:101D2000002070470C4A904204D00C4A904201D0E7
:101D30000020F6E70388022213439BB20380C37B93
:101D40005BB2002BFBDB0120EBE7C0460034004216
:101D5000002C00420030004200380042003C0042AB
:101D600007231840072813D880000B4B1B589F46A9
:101D7000012070470420FCE70820FAE71020F8E76C
:101D80004020F6E780204000F3E78020C000F0E725
:101D90000020EEE70220ECE75456000070B5040086
:101DA0000D1C164A904210D007D8154A90420CD00C
:101DB000144A904209D0002070BD134A904204D0CA
:101DC000124A904201D00020F6E723881B0A072020
:101DD00018400F4B98470F4B98470F4B291C9847BB
:101DE000011C0E4B0E4898470E4B9847FF2803D80E
:101DF000C0B220750120DFE70020DDE7003400429B
:101E0000002C00420030004200380042003C0042FA
:101E1000611D0000A94F0000C9490000FD450000F8
:101E2000001B374CC9420000F8B504000E00151C19
:101E30001B4A904210D007D81A4A90420CD01A4A36
:101E4000904209D00020F8BD184A904204D0184AA8
:101E5000904201D00020F6E7164B0021281C98473D
:101E600000281BD1144BFE218905281C9847002807
:101E700001D0FE25AD05277DFFB2104B38009847F5
:101E80000F4B291C98470F4B98473B00874200D3C4
:101E90000300DBB2A41923760120D4E70025E1E793
:101EA00000340042002C0042003000420038004262
:101EB000003C00421D42000045420000A94F0000C6
:101EC000C9490000C9420000114B984217D00CD8F4
:101ED000104B984215D0104B984214D00F4B98429B
:101EE00001D0002070470120FCE70D4B98420CD038
:101EF0000C4B984201D00020F4E70120F2E70120CA
:101F0000F0E70120EEE70120ECE70120EAE7C04618
:101F100000140042000C0042001000420008004281
:101F200000180042001C0042294B98423DD022D8A4
:101F3000284B984230D0284B984208D1274A136A40
:101F400010210B431362264B264A5A800AE0264B87
:101F500098420ED1214A136A04210B431362204B8D
:101F6000224A5A801E4B5B785BB2002BFADB0120C1
:101F700070470020FCE71E4B98421FD01D4B984233
:101F800008D1164A136A80210B431362144B1A4A74
:101F90005A80E7E70020EBE7104A136A08210B4359
:101FA00013620F4B154A5A80DCE70C4A136A202152
:101FB0000B4313620A4B124A5A80D3E7074A136A4B
:101FC00040210B431362064B0E4A5A80CAE7C046B3
:101FD00000140042000C00420010004200040040C7
:101FE000000C0040164000000008004214400000B1
:101FF00000180042001C004219400000154000007B
:10200000174000001840000070B506000D000A4B94
:102010009847041E0ED06800084B9847011C084BD7
:1020200008489847084BFE2189059847074B984771
:10203000C0B23073200070BDC91E000041500000C6
:10204000FD450000001B374C454C0000C942000014
:10205000F8B5CE46474680B504000D0017001E00B7
:1020600008AB1B789946124B98478046002804D14C
:102070004046C0BCB946B046F8BD6D073F073D437A
:10208000360535434B461B041D430C231D43256079
:1020900080239B02636009992000064B98472368C0
:1020A000022213432360E3699B07FCD4E0E7C046A8
:1020B000291F000009200000037EDB07FCD5816298
:1020C000037E9B07FCD5806AC0B2704700E0836A3C
:1020D000037E5B07FBD47047274A536802210B43FA
:1020E0005360264A264B9382938A0B439BB293827A
:1020F000224BDB689B07FBD5224B0222FF329A6002
:10210000214A5A601F4B5B785BB2002BFADB1D4BF8
:102110008222D2015A80194BDB68DB06FBD5174BB4
:1021200002229A84154BDB68DB06FBD5134B174A5A
:10213000DA62124BDB68DB06FBD5154B5B680F4B95
:102140009A6A9A620D4BDB68DB06FBD50B4A938CCF
:1021500010490B439384094BDB681B06FBD5074BE7
:10216000DB685B06F7D5074B0B4A5A60054B5B787B
:102170005BB2002BFADB70470040004100080040D2
:102180000C040000000C004001050300B905FF7DB0
:102190002060800006080000000703000138C046E8
:1021A000C046C046C046C046F8D17047144A116ABE
:1021B00080235B010B431362124B134A5A80114B6D
:1021C0005B785BB2002BFADB104B08221A800F4BB6
:1021D000DB7B5BB2002BFADB0C4A138802210B433A
:1021E0009BB21380094BDB7B5BB2002BFADB074B06
:1021F000074A5A80054BDB7B5BB2002BFADB70474A
:1022000000040040000C00401C4000000030004270
:1022100010400000014B18697047C0460030004272
:10222000044B10225A73034BDB7B5BB2002BFADBAF
:102230007047C04600300042024B802212031A60F1
:102240007047C04600E100E0044A80238021090372
:10225000D150BFF34F8FBFF36F8F704700E100E0A5
:10226000044B10229A73044AC0235B0080210903A7
:10227000D15070470030004200E100E0024A93690B
:10228000034393617047C0460030004270B50600BA
:102290000D00104B9847041E18D00F4B9D4217D8C5
:1022A0000E4B280098470E4B0E4998470E4D832140
:1022B000C905A847011C0D4BFE20800598478F21BA
:1022C000C905A8470A4B984780B2B081200070BD6D
:1022D0000024FBE7C91E0000C0C62D0041500000CD
:1022E000FD450000001B374CC9490000454C00006B
:1022F000C9420000F8B504000E0017001D00114B84
:10230000984700281CD03605C0239B031E403F047D
:10231000C022920217403E430B4B3343236062605E
:10232000E2695207FCD429002000084B9847002896
:1023300006D02368022213432360E3699B07FCD481
:10234000F8BDC046291F0000040000408D22000097
:1023500000E0038D037E5B07FBD4704770B5104B24
:102360001C88402C00D9402426000D4B1D1D596CA3
:10237000220028000B4B98470023220029008020D0
:10238000094DA847002C07D0054B1A88121B1A804C
:102390005A6C92195A6470BD044B9847F4E7C046D2
:1023A00080040020F95100006D280000752900000C
:1023B00010B582B0404B48229B5C18321A4277D14C
:1023C0003E4B5B780B2B70D89B003D4AD3589F4601
:1023D000394B00221A715A7102203A4B98473A4BF6
:1023E000984767E00020374B9847374B984761E0A4
:1023F0000020344B9847344B98475BE02F4B59886B
:10240000080AC9B20023019301AA304B984700285B
:1024100019D00199002916D0284AD288824200D3C7
:1024200002002B4B994205D0234B1A805964294B4B
:1024300098473FE0204900230B800431013380207E
:10244000254CA04736E0254B984733E01A4B5022E5
:102450009A5C1A7101201B4B98471B4B984729E047
:10246000164B98781E4B984700280BD00020154B30
:102470009847114B1A004832917850229954124BC8
:10248000984717E0154B984714E00C4B59889888EB
:10249000144B9847002805D000200A4B98470A4B58
:1024A000984707E00D4B984704E00C4B984701E034
:1024B0000D4B984702B010BD80040020C8040020D6
:1024C000745600008D290000752900000D2D0000B4
:1024D000840400205D2300006D280000A529000071
:1024E000D12C0000E92C0000C12B000010B5054BD9
:1024F00048229B5C18321A4200D110BD024B98470B
:10250000FBE7C04680040020CF2C000010B50D4B27
:1025100048229B5C18321A4210D10B4B5B78052B7A
:1025200002D0062B07D010BD074B9B787F201840A8
:10253000064B9847F7E7064B9847F4E7054B984753
:10254000F1E7C04680040020C8040020B92600003E
:102550005D230000CD2C000070B506000B4B9847A2
:1025600080B21F2800D91F20431C5B00084A13714A
:1025700003235371002205E0B15C054B54001B1985
:10258000D98001329042F7DC024870BD89520000C8
:102590008004002084040020124A134B1A605A68F9
:1025A000124802405A605968C0229205114359608E
:1025B0000F49196159690140596159690A435A61C2
:1025C0005A69520052085A615969802212060A4318
:1025D0005A61084B0A22FF3210219954093A0131FD
:1025E00099547047D404002060050020FFFFFF8F3E
:1025F000840400200050004170B5264AD369202190
:102600000B43D361244B254A5A80254B01221A7073
:10261000234B9B78DB07FBD4214B02221A70204B03
:102620009B789B07FBD41F4B5B685B03F8229202ED
:1026300013401F2B28D01B4A51688904F822D2036B
:1026400011401F2922D0174A5268D205E020800489
:102650000240072A1CD09B01F820C00003401F2025
:1026600001400B43120313430D4D2B850E4B1A787B
:1026700012010E4C002120000D4B98476C6208237C
:102680002B830C4B984770BD1A3BD4E70239DAE72D
:10269000043AE0E700040040000C0040064000005F
:1026A0000050004120608000F656000060050020C8
:1026B000015100009925000080235B421843C0B2FD
:1026C000014B98727047C0460050004130B503007E
:1026D00040B2002824DB3F201840494B44011B191D
:1026E0005C68484D2C405C605B68082A5FD9102A02
:1026F00000D872E0202A00D872E0402A00D872E0A8
:10270000802A00D872E080246400A24200D870E0E1
:102710000134FF34A24200D96EE0C022D20547E066
:102720003F20034036485C0100194469354D2C4078
:1027300044614069082A12D9102A26D9202A27D9AB
:10274000402A28D9802A29D980246400A24228D985
:102750000134FF34A24227D8C022D20500E0002273
:102760001043274A5C0112195061274C08335B0162
:102770001A5D0131C9B20901702001400A431A559E
:10278000A4466344A2221A7126E080225205E7E79C
:1027900080229205E4E7C0229205E1E78022D2057B
:1027A000DEE7A022D205DBE7E022D205D8E700224F
:1027B0001A43134B44011B195A60134A0830400155
:1027C000835C0131072421400B43835494466044C9
:1027D000402343712F3B037130BD80225205E7E750
:1027E00080229205E4E7C0229205E1E78022D2052B
:1027F000DEE7A022D205DBE7E022D205D8E7C0461B
:1028000060050020FFFFFF8F00500041F0B5124D22
:1028100044012B195E68114F3E405E605E68920372
:102820000F4F3A4016435E605A68920B92035A600B
:102830005A685A606151083040010A4B9C46604416
:102840000523C371084B9C466444012323703F3326
:1028500003710020F0BDC04660050020FF3F00F07E
:1028600000C0FF0F005000410951004170B53F24E6
:102870002040154C4601A41965696D006D0865611D
:102880006569DB071D4365616369104D2B4063611A
:102890006369636163699B0B9B0363616369920472
:1028A000920C13436361216108304001084B9C4640
:1028B00060440A23C371074B9C466644022333706D
:1028C0007E334371002070BD60050020FF3F00F0A3
:1028D000005000410951004143B2002B0ADB3F2365
:1028E000034008335B01094A94466344D8790123C5
:1028F000184070473F23034008335B01034A944666
:102900006344DB795B0801201840F2E70050004186
:1029100043B2002B09DB3F23034008335B01084A25
:10292000944663440122DA7170473F230340083321
:102930005B01034A944663440222DA71F4E7C0461D
:1029400000500041034B40011B1858688004800C64
:102950007047C04660050020044B80221A60044A7C
:10296000138901218B4313817047C04600E100E0C9
:102970000050004110B5034940220020024B984707
:1029800010BDC046D40400200D28000010B5020080
:10299000024901238020024CA04710BD840400207E
:1029A0006D280000024A0623FF333021D1547047BE
:1029B0000050004170B5254B1C8CA4B29B8B1B07AB
:1029C00010D4E3070CD521490822FF328B5CDDB21D
:1029D00013208854DB060DD4EB0713D4AD0714D4B1
:1029E000012316E0194B08229A83194B9847194B7B
:1029F000984726E018481949FF3A194B9847194B50
:102A00009847E9E7184B9847E8E7184B9847E7E7F6
:102A10000133174A12789A4211DD01229A4014427A
:102A2000F6D01A000832520108498C466244D17926
:102A3000C9B25A010F48844662441170E8E70E4B50
:102A400098470E4B80221A6070BDC046005000416E
:102A500099250000BD2B0000C8040020D4040020EC
:102A6000F9510000B1230000ED2400000D25000005
:102A7000F6560000085100418D2C000000E100E0F6
:102A800010B588B000201CE082001218D41707236C
:102A9000190021408918C910640F121913401B1B1B
:102AA0000C4A8A5C1A410C4C095D0824E31A9940CF
:102AB0000B0013431F221340084AD25C01AB1A5487
:102AC00001301928E0DD01A800238376044B9847E4
:102AD00008B010BD0CA080000DA08000A45600001E
:102AE0005925000010B5082203218120094CA04778
:102AF000202202210220A047202202218220A0477A
:102B0000054C202221000220044B9847202300225C
:102B1000E25410BDCD260000140500200D28000051
:102B200010B50220024B9847024B586210BDC046B8
:102B30004529000014050020024B20220021995451
:102B40007047C0461405002070B50C00202900DD38
:102B50002024094D2E002836220001003000074BAA
:102B600098470023220031008220054EB0472023E1
:102B70000122EA54200070BD14050020F951000024
:102B80006D28000070B50C00094B5B6A994201D9B1
:102B9000074B5C6A064D22002900064B984720220D
:102BA00029000220044B984700236B62200070BD6F
:102BB00014050020F95100000D28000070470000A6
:102BC00010B52A4B1A7860231340202B00D010BD7B
:102BD000264B19791F231340012B44D10029F6D12C
:102BE000224B5B78222B31D00CD8202B26D0212BE6
:102BF00036D10023062B23D81D4AD15C1D4AD1545F
:102C00000133F7E7232B2BD100201B4B98471B4B9D
:102C10009847DCE7164B1A49895C99540132134BEB
:102C20009979DB791B020B43934201DD062AF1D926
:102C30000020114B9847114B9847C8E70022EEE758
:102C400007200D4B98470D4B9847C0E7074B9A78E4
:102C50000C4B1A700020084B9847084B9847B6E772
:102C6000094B9847B3E7084B9847B0E7C8040020E2
:102C700048000020840400208D29000075290000F0
:102C8000D40400205C050020A529000010B5022016
:102C90000A4B9847002805D18220084B9847002806
:102CA00006D110BD0220064B9847064B9847F3E724
:102CB0008220034B9847044B9847F2E7D92800003D
:102CC00011290000212B0000392B000070477047AC
:102CD00010B5012801D9002010BD024B98470120F2
:102CE000FAE7C046E52A0000002803D0012805D0F5
:102CF00000207047002905D00020FAE7002903D002
:102D00000020F6E70120F4E70120F2E710B51400F7
:102D1000022828D0032808D0012803D0002000234F
:102D2000236010BD1130114BFAE702290FD008D8EB
:102D3000002915D001290FD10D480E4B98470300EB
:102D40000FE0032908D10C4B9847030009E00B481A
:102D5000084B9847030004E0002323600020E0E7CD
:102D6000074B1878DCE74620064BD9E7E45600000D
:102D7000C856000059250000812A0000D8560000DE
:102D8000E05600005000002010B5074B9847074B55
:102D900098478021C9030120054B9847054B984768
:102DA000054B9847012010BDD9200000AD2100003F
:102DB000BD1B0000A92F00002122000070B50400F7
:102DC00011E064258026F603310001200C4B984762
:102DD0000C4868430C4DA847310001200B4B984725
:102DE0000B48A84701342378002B07D02E2BE8D0BE
:102DF0002D2B01D00025E5E7C825E3E770BDC046CF
:102E0000CD1B0000701700009D210000DD1B00009D
:102E1000C027090010B572B60348044B9847044810
:102E2000044B9847F8E7C046F8560000BD2D000057
:102E300080EE36009D21000070B5134B9847134C6F
:102E4000201D20608023C0221149DB009200114D1B
:102E5000A8472068104B984701E00F4B98470F4B4D
:102E60001B68002B03D00E4B98470028F5D10B4B65
:102E70001B68002B06D18021C9030120094B98470C
:102E8000002070BD084B9847892D0000E005002008
:102E900059100000D52E0000BD2F0000180600209C
:102EA00071300000CD1B0000152E000010B5054B41
:102EB0009847054B1C68054B984760610120044BFF
:102EC000984710BD612200000C060020152200006A
:102ED000E131000010B504000748821A6260A36067
:102EE0004B1E2360E2602161044B98476061002320
:102EF000A3612422A35410BD6028002015220000E5
:102F0000F0B55F4656464D464446F0B483B0019056
:102F100072B62423C35C002B24D11C4B019A1A6087
:102F200003239361D36883F30988022383F314880E
:102F3000BFF36F8F62B6019213680133984772B680
:102F4000002383F31488BFF36F8F2433019AD35C7B
:102F5000002B18D162B603B0F0BCBB46B246A946FE
:102F6000A046F0BD0A4B98470A4B1A6853019B1ABA
:102F70009B009B18DB00C018074B9847074B9847EE
:102F8000074B9847C9E7074B9847E3E70C06002033
:102F900015220000345700007D220000612200004D
:102FA0003922000049220000034B00225A609A6037
:102FB0001A60DA607047C0460C060020F8B54F462C
:102FC0004646C0B4814672B68369032B49D0264B6E
:102FD000DB680F2B04DD0020C0BCB946B046F8BD4D
:102FE000224B984780464B469B69002B07D04B46A7
:102FF0005F693F1A1C4B5B689C4600250CE000276C
:10300000F8E710310EE00022BA4216DD164A9E00A3
:103010009319186101350B00134AD668AE420CDDD6
:10302000591EEED4104A8800121810698269002ACD
:10303000E9D042694446121BE6E70B4A9B00D318CD
:1030400049461961731CD360664601365660F11714
:10305000090F76180F2333405B1A536062B60120C4
:10306000BAE70020B8E7C0460C0600201522000091
:10307000F0B583B072B6574B9E68002515E0236803
:103080001B783DE023681B883AE06368BB4241D06F
:103090006B4607331B78002B63D10136F3171B0FE8
:1030A000F6180F221640F61A01354A4BDB68AB4280
:1030B00059DD484BB2009A1812691A609369022BC5
:1030C00051D1D4696B460022DA71E368002B01D03C
:1030D000E36898473F4B1A689369012B43D0A36874
:1030E000002B0FD0A168FF230B40A1688B42C6D0F4
:1030F000A3681B041B0CA1688B42C3D023681B6808
:10310000A7681F40237CDBB2062B61D89B003249A5
:10311000CB589F466B460121D971B9E76368BB4222
:10312000B6D06B460121D971B2E76368BB42AFD21A
:103130006B460121D971ABE76368BB42A8D86B46E7
:103140000121D971A4E76368BB42A1D96B46012173
:10315000D9719DE76368BB429AD36B460121D9714F
:1031600096E7012393611B4BDC68280015E01949A1
:103170008E688619731EDF173F0FDB190F2213406D
:10318000DB1BF7173F0FF6193240D21B9B00CB1801
:103190001B69920089180B6101380028E7DC0D4992
:1031A000631ECB608B6801338B60D817000F1B1830
:1031B0000F2213401B1A8B6062B6AC4203D1054B41
:1031C000186803B0F0BD034B1868044B9847F6E746
:1031D0000020F6E70C06002004570000012F000035
:1031E000F0B55F4656464D464446F0B483B0040001
:1031F000EFF31483002B1CD072B60F4B01931B68A6
:103200009C61082252426A44DA605A68043A954640
:103210007A4604321A6000BD02B0019B1B6803228B
:103220009A6162B603B0F0BCBB46B246A946A0465E
:10323000F0BD024B9847DFE70C060020152E00007A
:10324000F0B54F464646C0B48BB081460F0090465D
:103250001D000F4E34680F4B9847606105AC4B461C
:1032600005930697434607930023089325746B46FE
:103270001A0023CC23C203CC03C23268D3610220DC
:10328000054B98470BB0C0BCB946B046F0BDC04630
:103290000C06002015220000E1310000F0B54F4679
:1032A0004646C0B48BB081460F0090461D000F4EBD
:1032B00034680F4B9847606105AC4B460593069701
:1032C00043460793129B089325746B461A0023CC40
:1032D00023C203CC03C23268D3610220054B984756
:1032E0000BB0C0BCB946B046F0BDC0460C060020CD
:1032F00015220000E131000000B583B00C4B984767
:1033000001900C4B1A68536901995B1A0A490968C4
:10331000994207DC0849086807490860002B03DD6B
:1033200003B000BD1800F7E701239361F8E7C0463A
:10333000152200000C0600209800002070B586B011
:103340000400094B9847094B1D680019686101AAE0
:10335000074B110051CB51C111CB11C1EA610220C1
:10336000044B984706B070BD152200000C060020E3
:1033700020570000E1310000F8B5164B1B681E6AAB
:10338000B46A00250BE0134B1B6801229A610134DB
:10339000E3175B0FE41807221440E41A0135336B7E
:1033A000AB4215DDA31C9B009B591A7D002AEED071
:1033B0001A7C597C090211439A7C12040A43DF7C6F
:1033C0003F061743044B98473F1A002FDFDCDAE72C
:1033D000F8BDC0460C06002015220000F0B50C78A0
:1033E0004D782D0225438C7824042C43CF783F065A
:1033F0002743012600E00136016BB14217DD01329F
:10340000D117490F521807242240521A911C8900E3
:103410000D582C78697809022143AC7824040C43B8
:10342000E97809062143B942E5D16B75E3E7F0BDC0
:10343000F0B5CE46474680B583B0624B1B681F6A25
:103440005DE03800303001220233524200215E4CF0
:10345000A04757E02B7D002B58D10134E3175B0FB9
:10346000E41807221440E41A01239C46E1443B6B14
:103470004B4509DDA31C9B00DD591523EB56002BA2
:10348000E8D12B7D002BE5D1396B49455ED0152362
:10349000EB56022B2FD02A7B6B7B1B021343AA7B9C
:1034A00012041A43EB7B1B06134359D02B7B6A7B18
:1034B00012021A43AB7B1B041343EC7B24061C4310
:1034C0002B7A6A7A12021A43AB7A1B041343EA7A04
:1034D00012061A4379682B79687900021843AB7990
:1034E0001B040343E879000618432B00A04700287B
:1034F00001D002236B751523EB56022B33D03B6BA7
:10350000002B9ED0BC6A00239946B0E72A7C6B7CD6
:103510001B021343AA7C12041A43EB7C1B061343C1
:1035200098462A4B98474346181A002806DD01237F
:10353000220029003800264EB0478EE700232B7565
:10354000220029003800224CA0479DE73800303087
:103550000122204B0093012352421F4CA047CEE78B
:103560001E4B9847A2E72B7D002BC8D103336B7508
:1035700017E0B96A49444B1ED817400F1B180722A1
:1035800013401B1AC817400F09180A40121A0233B9
:103590009B00D95902329300D95101235B429C46CA
:1035A000E1444B46002BE4DC3B6B013B3B63BB6AD5
:1035B0000133BB62D917490F5B18072213405B1A0E
:1035C000BB629CE70C06002041320000152200007F
:1035D000DD330000793300009D320000152E00001D
:1035E00070B504001D000A4813000A000100200005
:1035F000084EB047A562049BE36200232365636520
:10360000A3652300283323622000034B984770BD35
:1036100031340000D52E0000BD2F0000F8B50400A5
:103620000D000698079900262A70170A6F70170C6C
:10363000AF70120EEA702B711A0A6A711A0CAA7115
:103640001B0EEB712872030A6B72030CAB72000E37
:10365000E87229730B0A6B730B0CAB73090EE973D9
:103660002E756E7507E0200058300122012352426A
:1036700008210B4EB047A36D082BF4D0626D1100EA
:103680000C3189000D510133A36501326265D117F8
:10369000490F5318072213405B1A6365F8BDC046F3
:1036A00041320000F0B5DE4657464E464546E0B58D
:1036B00089B004000E00059307AB03208246187002
:1036C00092B2152102A884466144100A08704A701B
:1036D0002278617809021143A27812040A43E5783E
:1036E0002D0615430496307828218946A944000107
:1036F000244E801924498B46039149460291019337
:1037000051460091002300220239204FB8476B46F2
:103710009B8A984600230393494602911C4B0193D0
:10372000414600910023002200215846B847049AE0
:1037300050780001801917498B460391164B02936C
:103740004946019151460091002300220021B847CB
:1037500000230393129B02934B460193434600932D
:103760000023012200215846B847211D049A280051
:103770000A4B984709B0F0BCBB46B246A946A046E2
:10378000F0BDC046E0030020700600206D1300006D
:103790005156000060060020B0020020393C0000B5
:1037A000F0B5DE4657464E464546E0B589B00400C2
:1037B0000E00059307AB0221197092B2133102A8D3
:1037C00084466144100A08704A70227861780902C0
:1037D0001143A27812040A43E5782D061543307888
:1037E00028229046A8440001254A91464844254A8B
:1037F00093460392424602920193032200920023D1
:1038000000220121204FB8476B469B8A9A4600232D
:103810000393414602911299019151460091002271
:1038200001215846B8477078000148441749894635
:10383000039117498B460291414601910322009260
:10384000002300220021B847002303935B46029324
:10385000434601935346009300230022002148462B
:10386000B84720000B4B9847211D320028000A4B17
:10387000984709B0F0BCBB46B246A946A046F0BD89
:10388000E0030020700600206D1300006006002099
:10389000B0020020DD140000393C0000F0B583B018
:1038A00014001D002423D35C002B04D0012B0AD06C
:1038B000012003B0F0BDD3699269246A00941A4CC8
:1038C000A0470120F5E79269E66993199C463F23DA
:1038D00017009F433B0040339C4500D39E1A236A48
:1038E00000933300114FB847114B9847114B98473D
:1038F000114B12499847124B98472874030A6B746E
:10390000030CAB74000EE87401232B75E3699B1B59
:10391000E36101D10120CCE7A3699B19A361236A6C
:103920009B1923620020C4E7A5360000A1370000E0
:103930001522000041500000F942000000606A4872
:10394000C942000030B583B014001A0006AB1D78E0
:103950002423CD54079B8B61089BCB61099B0B6291
:10396000034B019300912300024CA04703B030BDEC
:103970009D3800001D36000010B515300023FF22D1
:103980000321014CA04710BD41320000F0B5DE46D6
:1039900057464E464546E0B587B004000E000493F6
:1039A00017236B441A70D1B2802252420A431A7014
:1039B0000278417809021143827812040A43C578DB
:1039C0002D061543307828229146A9440001244A47
:1039D00092465044234A934603924A4602920193E8
:1039E000012200920023002200211F4FB8476B469E
:1039F0001B8A984600230393494602911B4B01936F
:103A0000414600910023002200215846B8477078B3
:103A10000001504416498B460391164B02934946C8
:103A2000019101220092002300220021B8470023C7
:103A30000393109B02934B4601934346009300234C
:103A4000012200215846B847211D320028000A4BA8
:103A5000984707B0F0BCBB46B246A946A046F0BDA9
:103A6000E0030020700600206D1300005156000096
:103A700060060020B0020020393C0000F0B5DE46B0
:103A800057464E464546E0B587B004000E00049305
:103A900017236B441A70D1B27F220A401A70027841
:103AA000417809021143827812040A43C5782D0631
:103AB0001543307828229046A8440001244A9146B4
:103AC0004844244A934603924246029201930122BB
:103AD00000920023002200211F4FB8476B461B8A2B
:103AE0009A46002303934146029110990191514651
:103AF0000091002201215846B847707800014844DF
:103B000016498946039116498B4602914146019117
:103B100001220092002300220021B84700230393D2
:103B20005B460293434601935346009300230022D1
:103B300000214846B847211D32002800094B98470C
:103B400007B0F0BCBB46B246A946A046F0BDC04691
:103B5000E0030020700600206D13000060060020C6
:103B6000B0020020393C0000F0B585B005000E0021
:103B70001400802189030020174B98472523E35C1C
:103B80001B010F226A441370009201237F2231002F
:103B90002800124FB8472423E35C002B09D0012BE7
:103BA00010D08021890300200D4B9847012005B0DB
:103BB000F0BDE369227E216A009131002800094CA2
:103BC000A047EEE7E369227E216A009131002800D8
:103BD000024CA047E5E7C046CD1B00007D3A00003F
:103BE000DD1B00008D39000070B582B014001A0092
:103BF00006AB1E7807AB1D782423CE54089B8B613F
:103C0000099BCB610A9B0B622523CD54034B019387
:103C100000912300024CA04702B070BD693B000038
:103C20001D36000010B515300023FF220321014C82
:103C3000A04710BD41320000F8B507000D00140088
:103C400010781C4EB0476078B04738001A4B984740
:103C50002379E27820780221184FB8472379A27897
:103C600060780221B8472B786A7812021A43AB7841
:103C70001B041343E978090619432879104B984728
:103C80002078104FB8476078B84760780E4B984757
:103C90002078B0476078B0472B786A7812021A43D0
:103CA000AB781B041343E978090619432879074BBD
:103CB0009847F8BD4D140000CD200000D913000036
:103CC000DD1B000025140000E93C0000CD1B0000B6
:103CD000034B1B681B6A1978024A3F23D154704773
:103CE0000C0600200048004170B584B00390084CD9
:103CF00023681D6A03AA1A62064B0093002302225E
:103D000002210548054EB04723681D6204B070BD0E
:103D10000C060020D13C00004E4800419D320000BE
:103D2000F0B587B005000C0016000593124B9847BC
:103D3000071E02D1380007B0F0BD207828350001F9
:103D40000E4BC01800230393029501966B469E8A82
:103D50000096002300220121094DA8472078094B35
:103D600098472379E27820780221074DA8472078E8
:103D7000064B9847DEE7C046C91E0000E00300205E
:103D80006D1300004D140000D9130000251400002D
:103D900010B50078014B984710BDC046E93C0000C3
:103DA000F0B587B005000C0016000593124B98473C
:103DB000071E02D1380007B0F0BD60782835000139
:103DC0000E4BC01800230393029601956B469E8A02
:103DD0000096002301220021094DA8476078094B75
:103DE00098472379A27860780221074DA847607828
:103DF000064B9847DEE7C046C91E0000E0030020DE
:103E00006D1300004D140000D913000025140000AC
:103E100010B54078014B984710BDC046E93C000002
:103E200070B5254B00221A705A709A70DA700FE044
:103E3000214CE068C018214B9847A3681B18A36069
:103E40001D4BDB78002B03D01D4B1B68002B1FD1B3
:103E5000194C0123FF22002120001A4DA8470023FE
:103E600023706378002B25D1174B9847124B9B7812
:103E7000002BE5D0154B1B78002BE1D10E4B5A6877
:103E80009B68D11A9A42D3D10B4B00229A70D7E784
:103E90000B4B1968084C20696369C0180C4B984794
:103EA0006369C0186061A3699842D1D1024B0022B6
:103EB000DA70CDE770BDC04680060020492B0000B7
:103EC0003805002041320000B529000034050020EB
:103ED000852B0000F8B5CE46474680B506008846DB
:103EE000154F80257D51BFF34F8FBFF36F8FC022D9
:103EF000920406210020114B9847114B9847114B13
:103F000098471149114C1C239946A144434632005D
:103F100048460F4EB04748460E4B984701222000B6
:103F200034300123524200210B4CA0473D60C0BCFD
:103F3000B946B046F8BDC04600E100E0ED1B000008
:103F4000F925000059290000213E000080060020CC
:103F5000D52E0000BD2F0000413200008023054A0D
:103F6000D350BFF34F8FBFF36F8F034B01221A70F3
:103F70007047C04600E100E08006002070B50500F3
:103F80000E000D4B9B78002B0ED10B4CE56066604C
:103F90000023A3600133A37031002800074B98472A
:103FA000A3681B18A36070BD05480023FF220021F1
:103FB000044CA047E9E7C04680060020492B0000DA
:103FC000820600204132000070B5044CA01C002382
:103FD000FF220021024DA847A06870BD8006002086
:103FE0004132000070B505000C00094BDB78002B56
:103FF00007D1074B1D619C6100225A610132DA70C2
:1040000070BD04480023FF220021034EB047F0E7B3
:1040100080060020830600204132000070B5044C69
:10402000E01C0023FF220021024DA847606970BDFB
:10403000800600204132000070B5060000240020F8
:104040000AE0335D43400F251D40054A505D1B09C2
:10405000D218137C584001348C42F2DB70BDC0464C
:10406000405700000430704770B50C003B2B0CD853
:10407000191D4518AC260670447082700533C37054
:10408000034B98472870012070BD0020FCE7C04614
:104090003940000010B50378AC2B0AD1C1784B1F12
:1040A000DBB23B2B07D8064B9847002805D10130DF
:1040B00000E0002010BD0020FCE70020FAE7C04629
:1040C000394000004078704780787047033070476F
:1040D000F8B50E00C1784C1FE4B23B2C32D80F313A
:1040E00009114D1E01249D4200DC0024069D2C7008
:1040F000002B29DB994229DDF71CAE243470737044
:10410000B2705C1C8C420CD000220F2A11DCC578E6
:104110001C012D1B95420CDDA418015DB954013220
:10412000F3E702210A43B270EEE7BB1800211970D1
:1041300001320F2AF9DD13213000054B9847F07446
:10414000012000E00020F8BD0020FCE70020FAE795
:104150003940000010B50378AE2B09D14378032B0A
:1041600008D81421054B9847002805D1013000E0FC
:10417000002010BD0020FCE70020FAE739400000D5
:1041800083789B08012018407047407870470000F2
:1041900010B50400AE230370002343700433837012
:1041A0001321024B9847E07410BDC046394000000F
:1041B00030B500240F2C09DC43781B011B193F2B61
:1041C00004DC0519ED78CD540134F3E783785B08FE
:1041D00001214B4001210B401370012030BD000034
:1041E00010B50A00C117D317024CA0470904000CF0
:1041F000084310BD6D420000844608006146FFE799
:104200001FB500F093FB002801D40021C8421FBD58
:1042100010B500F013FB4042013010BD10B500F0A6
:1042200085FB002801DB002010BD012010BDC04629
:1042300010B500F07BFB002801DD002010BD01203F
:1042400010BDC04610B500F021FB002801DC0020A5
:1042500010BD012010BDC04610B500F017FB0028AE
:1042600001DA002010BD012010BDC046F0B5CE46D9
:104270009946030C9C46130447461B0C1D000E0078
:1042800061460404240C80B50700100C4B436543C1
:10429000414360432C0CC01824188C46A34203D918
:1042A00080235B029846C444494679435643230C15
:1042B0002D042D0C8919634424046019C918C0BC4D
:1042C000B946B046F0BDC0469E2110B5C905041CD4
:1042D000FFF7C2FF002803D1201C00F045FE10BDEF
:1042E0009E21201CC90500F0ADFC00F03DFE80239E
:1042F0001B069C466044F2E7F8B543024500C40F34
:104300004802420A94464A005F0A2D0E9B09120E8B
:10431000C90F80098C4222D0AE1A002E0DDD002A72
:104320002DD1002800D183E0721E012E00D11BE1A7
:10433000FF2E00D1A2E0160027E0002E48D0561B29
:10434000002D00D0C1E0002B00D1F7E0741E012E3B
:1043500000D12DE1FF2E00D18EE02600BAE0A91A8F
:10436000002900DC8CE0002A46D0FF2D00D185E03A
:104370008022D20410431B2949DD013316E0FF2DB2
:1043800000D17BE08022D204104301221B2E07DCE7
:104390002021891B02008840F240411E88410243CF
:1043A0009B1A5A0151D407221A4042D00F221A40B8
:1043B000042A00D004335A013BD5681CFE2D34D0AA
:1043C0009B015B0AC0B2C0051843E4072043F8BD57
:1043D000FE266A1C164200D08BE0002D00D0B1E012
:1043E000002B00D1DFE0002869D01A1A560100D452
:1043F000FBE00C00C31A3CE0002800D1B7E04A1EE5
:10440000012900D1AAE0FF2938D01100B3E702004A
:104410002026CA40711A8840411E884110431B184B
:104420005A01C0D50135FF2D6CD1FF200023CAE70A
:104430003500DB08FF2D44D1002BF6D08022D203BB
:1044400013435B02FF205B0ABDE79E01B609300003
:1044500000F038FE05388640854220DC2022401BD3
:104460000130121A33009640C340721E9641002557
:1044700033435A079AD19EE70C000300DB08DBE7C1
:10448000002910D0511B002D43D1002B00D193E007
:104490004D1E012962D0FF29EFD029003EE0554B87
:1044A0002D1A3340E5E7FE216A1C11423BD1002D55
:1044B0006AD1002B00D18EE0002800D08DE00025CD
:1044C000DB085B025B0AE8B27DE7FF2AD4D08024D8
:1044D000E404234301241B2E07DC2025AD1B1C0014
:1044E000AB40F4405D1EAB411C43031B15000C00A8
:1044F00057E71E1A72012ED4002EA8D100240020E6
:10450000002360E701223C491A405B080B4013433B
:10451000AFE7FF2AB1D08025ED042B431B2928DD0E
:104520001500431C42E7FF2A00D17EE71B185B08F9
:1045300015005A0700D039E7DB08C2E70C00350048
:10454000030076E7002B3AD1002895D18023002480
:10455000FF20DB0337E70C00C61A78E71B1802259B
:104560005A01CFD4013D1EE701251B1A19E70D00A2
:104570005FE71D002026CD40711A8B40591E8B41EC
:104580002B431B1815004BE7002B00D175E70028C3
:1045900000D173E78022D203974202D3944500D220
:1045A0000300DB084AE70028A8D00C00030086E7D8
:1045B0000C00C31A0135F4E60D00030039E70028AA
:1045C00000D15BE78022D2039742EAD39445E8D238
:1045D0000C000300E5E7030071E71B185A01ABD597
:1045E000044A01351340DB086BE7131E86D0DB0855
:1045F00067E7C046FFFFFFFBFFFFFF7DF0B54F46BB
:104600004646D6464402C0B547000E1C640A3F0E1B
:10461000C50F002F3CD0FF2F42D0002380229946A7
:104620009A46E400D20414437F3F73025B0A984623
:1046300073001B0EF60F002B1BD0FF2B13D042462E
:104640008021D200C9041143884600207F3B290005
:10465000FF1A4B467140C9B20F2B00D9B5E0744A1E
:104660009B00D3589F464346002B3FD1FF3F023368
:1046700003E04346002B2DD1012329004A46714017
:10468000C9B21A430E2A38D86A489200825897460F
:10469000002C13D104239946033B00279A46C4E714
:1046A000002C05D108239946063BFF279A46BCE714
:1046B0000C239946093BFF279A46B6E7200000F0F5
:1046C00001FD7627431F9C4000237F4299469A466E
:1046D0003F1AAAE7404600F0F5FC4246431F9A40C5
:1046E00076235B421B1A90460020B0E703234A461C
:1046F0001A4391460320FC33A9E70D00FF20002256
:10470000C005ED0710432843E0BCBA46B146A846B1
:10471000F0BD0D0000200022F2E75346022BEDD041
:10472000032B33D0A046012B05D100200022E7E760
:10473000350003287AD03B007F33002B2DDD424625
:10474000520707D00F2241460A40042A02D0042211
:104750009446E0444246120105D54246364B1A4083
:104760003B0090468033FE2BC8DC42469201520A41
:10477000D8B2C5E780220025FF20D203C0E78022FF
:10478000D203144202D04346134249D08022D203BE
:1047900022435202FF20520AB2E70122D31A1B2BF6
:1047A000C3DC4246DA4043469E37BB40591E8B412C
:1047B0001A43530704D00F231340042B00D00432B4
:1047C000530129D5012000229AE742466301550191
:1047D000AB4215D21B200022013F01261C005200D3
:1047E0005B00002C01DB9D4201D85B1B324301388A
:1047F0000028F3D1581E8341134398460D009AE7D1
:104800001A2001225B1BE8E7023B5A4253415B42FC
:1048100035000022D8B273E792010020520A6FE7F8
:104820001A4352023500FF20520A69E74446ADE7B9
:1048300060570000A0570000FFFFFFF770B542006F
:104840004E024C0045026D0A120EC30F760A240E6A
:10485000C90FFF2A10D0FF2C0CD00120A2420AD190
:10486000B54208D18B420FD0002A04D12800431E44
:10487000984100E0012070BD0120FF2CFBD13543A1
:10488000F9D14B401800F6E70020F4E730B54200BC
:1048900044024D02C30F4800640A120E6D0A000E56
:1048A000C90FFF2A19D0FF280BD0002A1ED10028DB
:1048B0000BD1002D27D0002C34D100292FD0080097
:1048C00030BD002D28D1002A01D1002CF5D08B421B
:1048D00007D1002B23D01800F2E7002C1CD1FF28B1
:1048E00014D0581E022318400138E9E70028F8D0F8
:1048F0008B42F6D18242F4DCEBDBAC42F1D80020F3
:10490000AC42DDD2E5E7002CDAD0EAE7002D03D196
:104910008B42E6D10020D3E702204042D0E70120BD
:104920004042CDE78B42E8D0DBE7C04630B54200DD
:1049300044024D02C30F4800640A120E6D0A000EB5
:10494000C90FFF2A1AD0FF280ED0002A1ED1002836
:104950000ED1002D2AD0002C0CD08B421DD0581E19
:1049600002231840013810E0002D0DD1002A20D17B
:10497000002C1ED1002923D0080006E0002C03D112
:10498000FF28ECD1002D17D0022030BD0028E6D042
:104990008B42E4D18242E2DC04DBAC42DFD800206F
:1049A000AC42F2D2002B0BD01800EEE7002CECD07A
:1049B000D5E78B42D3D1F5E700208B42E5D0CEE797
:1049C00001204042E1E7C046F0B54F464646D64694
:1049D00043025B0A99464300C0B51B0E0E1CC50F6F
:1049E000002B00D185E0FF2B00D18BE04A468021CF
:1049F000D200C90411437F225242904698440023BA
:104A0000894600279A4674027300640A1B0EF60F4B
:104A1000002B64D0FF2B1FD080227F3BE400D20408
:104A2000434400201443591C0A2F2BDC7540022FED
:104A300022DC013F012F00D9BBE002286BD0012806
:104A40002AD100200022C005ED0710432843E0BC16
:104A5000BA46B146A846F0BD002C64D003224146B8
:104A6000434617432A000131FF337240FF310A2FBA
:104A700000DDD7E0150003200122BA40A627FF0081
:104A80003A4220D05346022B45D0032B00D1BBE045
:104A900050464C460128D4D00B007F33002B70DDEC
:104AA000620704D00F222240042A00D004342201DD
:104AB00003D5634B1C400B008033FE2B2BDCA20183
:104AC000520AD8B2BFE79027BF003A4226D1B93F79
:104AD000FF3F17426DD03500A1468246D2E7002C39
:104AE00041D101231F4343460120591C0A2F9DDD5C
:104AF000C8E74B46002B27D10023984601330427F3
:104B00009A4680E74B46002B18D1FF239846FD3B81
:104B100008279A4677E7FF20002294E780220025A5
:104B2000FF20D2038FE702231F434346591CFF3166
:104B30000A2FA7DC0220FF33754078E7FF23984651
:104B4000FC3B0C279A465EE7484600F0BBFA4A4613
:104B5000431F9A4076235B421B1A984600239146D6
:104B600000279A464FE7200000F0ACFA431F9C4014
:104B700043461B1A763B0020591C0A2F00DC55E7E0
:104B800080E70122D31A1B2B00DD5AE79E31220059
:104B90008C40DA40631E9C412243530704D00F230C
:104BA0001340042B00D00432530137D501200022DA
:104BB00049E7200C4A462404240C2700160C120452
:104BC000120C74435743464350433A0C00191218D1
:104BD000944203D980204002844666443F04100476
:104BE0003F0CC0198401671EBC41120C800E921943
:104BF00004439201144312010ED5012362081C40A4
:104C0000144349E73500A14680224B46D2031A439C
:104C10005202FF20520A16E719003DE792010020D8
:104C2000520A10E70F2FEDD180224B46D2031342D8
:104C3000EAD01442E8D13500FF20224303E7C04602
:104C4000FFFFFFF7F8B543024500C40F4802420AD0
:104C500094464A005E0A2D0E9B09120EC90F800968
:104C6000FF2A23D001277940AF1A8C420FD0002FA2
:104C700000DC5DE1002A2FD1002800D190E07A1EEF
:104C8000012F00D11AE1FF2F1CD0170029E0002FBF
:104C900000DC59E1002A52D0FF2D13D08022D2042B
:104CA00010431B2F00DC6AE001332BE000283BD0CF
:104CB0008C424DD0FF2D00D18FE0002D00D1ABE014
:104CC0000C000300DB08002B67D08022D2031343C3
:104CD0005B02FF205B0A22E0FF2DF3D08022D2048A
:104CE000104301221B2F07DC2021C91B0200884032
:104CF000FA40411E884102439B1A5A0156D40722AA
:104D00001A404ED00F221A40042A00D004335A0110
:104D100047D5681CFE2D40D09B015B0AC0B2C00580
:104D20001843E4072043F8BD012779408C42C1D1E4
:104D3000FF2D10D0002D00D1E7E00023C2E70028AE
:104D40002ED07A1E012F7FD0FF2FBBD01700A8E7EF
:104D5000FF2D00D083E0FE276A1C174200D08DE0B3
:104D6000002D00D0ADE0002B00D1D2E0002800D013
:104D7000D1E00025DB085B025B0AE8B2CFE7202127
:104D8000C91B02008840FA40411E884110431B188D
:104D90005A01B4D50135FF2D5AD1FF200023BEE7BB
:104DA0003D00DB08FF2D00D18DE7E4E79E01B60949
:104DB000300000F087F90538864085421FDC20224C
:104DC000401B0130121A33009640C340721E9641B8
:104DD000002533435A0795D199E7FE276A1C1742ED
:104DE00011D1002D5AD1002B00D189E00028C0D06C
:104DF0001A1A560100D496E00C00C31AEAE7584B81
:104E00002D1A3340E6E71E1A720144D4002ECFD18A
:104E100000240020002382E7FF25002B38D06E1EDF
:104E2000012D6AD0FF2D00D14AE701241B2E07DC9B
:104E30002025AD1B1C00AB40F4405D1EAB411C4364
:104E4000031B15000C0058E71B1802255A0133D527
:104E5000012244491A405B080B401343BAE7002D76
:104E600031D1FF35002B52D0691E012D20D0FF2DEE
:104E700029D01B2936DD1500431C43E7FF2A8CD0BF
:104E80001B185B0815005A0700D03BE7DB0872E7E8
:104E90000C00030085E70C00C61A89E7002B14D12B
:104EA000002800D00CE780230024FF20DB0336E736
:104EB0001B1801355A01CBD4013D20E701251B1AEF
:104EC0001BE7002B01D10300FCE6002800D1F9E626
:104ED0008022D203964203D3944501D20C000300F2
:104EE000DB08F2E61D002026CD40711A8B40591ECA
:104EF0008B412B431B1815004AE70C00C31AFCE634
:104F0000002885D00C00030033E7FF25AAE7030043
:104F100047E703002DE71B185A01B7D5104A0135A2
:104F20001340DB0827E7131E00D171E7DB0822E7F7
:104F3000002F00D151E7561B002D01D135006CE741
:104F40008024E404234370E7002F00D103E7511BC2
:104F5000002D01D10D0085E78025ED042B4388E766
:104F6000FFFFFFFBFFFFFF7D41024200C30F490A25
:104F70000020120E7E2A03DD9D2A02DD094A9818C0
:104F80007047802000040143952A07DC9620821A8E
:104F9000D1404842002BF3D10800F1E7963A914006
:104FA000F7E7C046FFFFFF7F70B5002813D0C31797
:104FB000C5185D40C40F280000F084F89E2301004E
:104FC0001B1A962B0FDC082834D008398D406D024F
:104FD0006D0AD8B202E0002400200025C005284355
:104FE000E407204370BD992B16DC421F052800D032
:104FF00095402A00114802406E0709D00F2635401F
:10500000042D05D00432550102D59F2302405B1ABE
:105010009201550AD8B2E1E70522121A2800D040C1
:10502000020008001B3085402800451EA8410243AD
:105030001500DEE76D0296206D0ACFE7FFFFFFFB4C
:1050400070B5041E0ED000F03DF89E2301001B1A1F
:10505000962B0CDC08282FD008398C406402640A97
:10506000D8B201E000200024C005204370BD992B78
:1050700016DC421F052800D0944022001048024050
:10508000650709D00F252C40042C05D004325401AB
:1050900002D59F2302405B1A9201540AD8B2E3E77B
:1050A000020020001B3290400200501E8241052069
:1050B000401AC4401443E0E764029620640AD3E730
:1050C000FFFFFFFB1C2101231B04984201D3000CAE
:1050D00010391B0A984201D3000A08391B0998426B
:1050E00001D30009043902A2105C40187047C04681
:1050F00004030202010101010000000000000000A1
:10510000F0B50500830749D0541E002A45D003009E
:105110000326CAB202E00135013C3ED301332A70B6
:105120003342F8D1032C30D9FF220A401502AD18C2
:105130002A04AD180F2C34D92700103F3F093E0137
:10514000B4461E001A00103666441560556095601E
:10515000D56010329642F8D101373F01DB190F2795
:105160000C22274022403C00002A0ED03E1FB608E9
:10517000B400A4461A001C1D644420C2A242FCD103
:1051800003240136B6009B193C40002C05D0C9B25F
:105190001C19197001339C42FBD1F0BD03001400AF
:1051A000C0E72700E2E7C04670B50D4B0D4D5E1B12
:1051B000B610AB4205D0002408CD01349847A64272
:1051C000FAD800F00BFB084B084D5E1BB610AB4243
:1051D00005D0002408CD01349847A642FAD870BD06
:1051E000E8570000E8570000F0570000E8570000BB
:1051F0007047C0467047C046F0B505000F2A33D946
:105200000324030026000B431E401C4237D1150027
:10521000103D2D0903000C00AC462F013F186568B6
:105220005D60A5689D60E568DD60256810341D60DF
:105230001D001033BD42F2D165460F230C24013509
:105240002D0149191340451914421AD08C59AC51FB
:1052500004369C1B032CF9D8043B9B0801339B00AC
:10526000ED18C91803231A40561E002A06D0002341
:10527000CC5C1A00EC5401339642F9D1F0BD561EB5
:10528000F5E71A00F0E7C04610B583070AD003001F
:10529000032102E001330B4205D01A78002AF9D12C
:1052A000181A10BD030019680C4A0D4C8A188A435D
:1052B00022420FD15968094A04338A188A4322428C
:1052C00008D15968054A04338A188A432242F1D02A
:1052D00000E001331A78002AFBD1E1E7FFFEFEFE71
:1052E00080808080034B10B5002B02D0024800F074
:1052F00005F810BD000000000D53000010B50100BE
:1053000000230022002000F015F810BD70B5074CF6
:10531000074D641BA41005D0013CA300EB5898472F
:10532000002CF9D100F064FA70BDC04600580000AE
:10533000FC570000F0B5D6464F4646469846224BED
:10534000C0B50600186899460F009246FFF750FF57
:105350001E4B1D68002D2DD06C681F2C2DDC002EDF
:105360000ED1631C6B604B460234A4001868675171
:10537000FFF740FF0020E0BCBA46B146A846F0BDAA
:10538000882251462800A300EB189950873AA24082
:105390008930FF3001681143016084214046490093
:1053A0005850022EDDD129008D31FF310B68134397
:1053B0000B60D6E7064D1D60CEE74B461868FFF739
:1053C00019FF01204042D6E79C000020C8060020BB
:1053D000CC060020494E56414C494400526177208A
:1053E0005820446972656374696F6E204163636518
:1053F0006C65726174696F6E000000005261772005
:105400005920446972656374696F6E2041636365F6
:105410006C65726174696F6E0000000052617720E4
:105420005A20446972656374696F6E2041636365D5
:105430006C65726174696F6E0000000052617720C4
:1054400058204178697320416E67756C61722056EF
:10545000656C6F63697479005261772059204178D7
:10546000697320416E67756C61722056656C6F635D
:1054700069747900526177205A204178697320411C
:105480006E67756C61722056656C6F636974790024
:1054900043616C696272617465642058204469726A
:1054A000656374696F6E20416363656C65726174D6
:1054B000696F6E0043616C69627261746564205942
:1054C00020446972656374696F6E20416363656C23
:1054D00065726174696F6E0043616C6962726174B8
:1054E0006564205A20446972656374696F6E204157
:1054F0006363656C65726174696F6E0043616C69AA
:105500006272617465642058204178697320416E2D
:1055100067756C61722056656C6F63697479000001
:1055200043616C69627261746564205920417869D5
:105530007320416E67756C61722056656C6F63698C
:105540007479000043616C69627261746564205A09
:10555000204178697320416E67756C6172205665D1
:105560006C6F636974790000454550524F4D204C73
:1055700061796F757420486173680000506F7765BA
:1055800072204379636C65730000000044697361A5
:10559000626C652042757A7A6572000044697361B5
:1055A000626C65204C454400436C65616E20536815
:1055B0007574646F776E0000000000400100000009
:1055C000E60B0000F20B0000000C00000E0C0000C7
:1055D0001C0C00006A0C0000720C00007C0C000027
:1055E000860C0000900C0000CE0C0000DA0C0000CD
:1055F000E80C0000F60C0000040D0000520D000045
:105600005A0D0000640D00006E0D0000780D0000C2
:10561000DE0D0000B60D0000C00D0000CA0D000038
:10562000D40D00000203010202000000040503047F
:10563000020000000607090A0200000008090B0C1E
:1056400002000000000000800100000000010708C7
:1056500001000000701D0000941D0000741D00007A
:10566000781D00007C1D0000801D0000841D0000CE
:105670008A1D0000D0230000E4230000AA240000BB
:10568000E4230000AA240000F0230000FC23000013
:10569000AA2400004C24000060240000AA2400007A
:1056A0008A240000303132333435363738394142BC
:1056B00043444647484A4B4C4D4E50515253545622
:1056C0005758595A0000000046696E6C65792042AF
:1056D0006C61696E65000000474E433200000000B7
:1056E0000403090412010002EF02014009120E0036
:1056F00000020102030103002E2E2E2D2D2D2E2E31
:105700002E0000008A3000001C3100002A31000009
:105710003831000046310000543100009030000064
:10572000000000000000000000000000F93200004E
:10573000060000003000000080BB0000006CDC02AE
:1057400000070E091C1B1215383F363124232A2D61
:105750000070E090C7B7275789F969194E3EAEDE51
:10576000CA470000FA460000124700003047000018
:105770001247000074470000124700003047000045
:10578000FA460000FA460000744700003047000067
:105790001A4700001A4700001A4700007E47000021
:1057A000FA460000FA4600001247000008480000D0
:1057B000124700007447000012470000084800002C
:1057C000FA460000FA46000074470000084800004E
:1057D0001A4700001A4700001A470000F8B5C046F3
:1057E000F8BC08BC9E467047E55200002D01000041
:1057F000F8B5C046F8BC08BC9E46704701010000E1
:10580000D4530000DC530000FC5300001C54000083
:105810003C540000585400007454000090540000A0
:10582000B4540000D8540000FC540000205500007F
:1058300044550000685500007C5500008C55000060
:105840009C550000A855000038C101000000080068
:1058500009024600020100C000080B00020202001B
:1058600000090400000102020000052400100104E8
:105870002402020524060001070581030800FF0930
:10588000040100020A0000000705020220000507CB
:105890000582022000050000FFFFFF7FC4060020F4
:00000001FF
